:020000040800F2
:10000000C01B00209D01000817350008DF250008EF
:1000100015350008870A0008513B00080000000061
:1000200000000000000000000000000005010008C2
:10003000CB0A00080000000049010008D53600087E
:10004000B7010008B7010008B7010008B7010008B0
:10005000B7010008B7010008B7010008B7010008A0
:10006000B7010008B7010008B7010008890A0008B5
:10007000B7010008B7010008950A0008B701000899
:10008000B7010008B7010008B7010008B701000870
:10009000B7010008B7010008B7010008B701000860
:1000A000B701000861370008B7010008B701000870
:1000B000B7010008B7010008B7010008B701000840
:1000C000B7010008B7010008B7010008B701000830
:1000D000B7010008B7010008B7010008B701000820
:1000E000B7010008B7010008B7010008DFF810D019
:1000F00000F08CFC00480047114A0008AFF3008074
:10010000C01B0020224B19680868B0E8F00F80F38C
:100110000988BFF36F8F4FF0000080F311884EF015
:100120000D0E70470000000006480068006880F36C
:10013000088862B661B6BFF34F8FBFF36F8F00DFE1
:1001400000BF00BF08ED00E0EFF30980BFF36F8F41
:100150000F4B1A6820E9F00F106008B54FF05000FF
:1001600080F31188BFF34F8FBFF36F8F05F066F9EF
:100170004FF0000080F31188BDE808401968086856
:10018000B0E8F00F80F30988BFF36F8F704700BFAE
:10019000E4000020EFF30580704700000648804728
:1001A00006480047FEE7FEE7FEE7FEE7FEE7FEE75C
:1001B000FEE7FEE7FEE7FEE75F370008ED00000818
:1001C000202A04DB203A21FA02F00021704721FAAC
:1001D00002F3D040C2F12002914008431946704713
:1001E00040EA01039B0703D009E008C9121F08C0B9
:1001F000042AFAD203E011F8013B00F8013B521E39
:10020000F9D27047D2B201E000F8012B491EFBD2AF
:1002100070470022F6E710B513460A460446194611
:10022000FFF7F0FF204610BDF0B480EA0102D40FC2
:100230004200B2EB410F02D20246084611464A0084
:1002400042D0C30DDDB2C1F3C752AD1A202D35DA4D
:10025000C1F3160141F4000204B15242C5F1200677
:1002600002FA06F12A411044B3EBD05F23D0C4B1A7
:10027000012DA0EBC35009DCF0BC4FF0004202EAB4
:10028000C352DBB200F5000000F0CBBA400000F131
:10029000807000EBC350A0F1807040EAD17049003B
:1002A00009E0490841EAC071A0EBC35000F5000025
:1002B000400800EBC350F0BC00F0AABA6142012232
:1002C00002EB4101001BF6E7F0BC704781F00041F2
:1002D000AAE780F00040A7E730B480EA010202F00C
:1002E000004530F0004221F0004013D090B1C30D22
:1002F000D40DC2F31601C0F31600E41A41F4000154
:1003000040F400027D34914201D3641C00E04900B6
:10031000002C02DA30BC002070474FF400000023AC
:10032000914201D3891A034340084FEA4101F7D1B2
:1003300051B1914202D14FF0004105E002D24FF09D
:10034000010101E06FF0010103EBC450284430BC0F
:1003500000F05EBA2DE9FE4F804681EA0300C00F2F
:100360000C46009021F0004123F00045B8EB02005C
:10037000A94105D24046214690461C460B460246FE
:1003800023F00040104347D0270DC7F30A00C3F302
:100390000A510290401A019040286BDAC3F313000F
:1003A00040F4801B0098924620B10023D2EB030A50
:1003B00063EB0B0B01985946C0F14002504600F028
:1003C00006FA06460D4650465946019A00F00EFAC6
:1003D00010EB08006141002487EA115284EAE773B8
:1003E0001A4340D0009A62B3019A012A4FEA075299
:1003F00015DC001B61EB02014FF0004202EA0752DC
:10040000CDE90042001C41F5801132462B4600F038
:1004100045FA03B0BDE8F08F40462146F9E7001BDE
:1004200061EB0201001C41F5801300185B412018AC
:10043000A2F5001747EB030140EAD570B6196D41EC
:1004400011E06D084FEA360645EAC0754FEA0752DB
:10045000001B61EB0201001C41F5801149084FEAC5
:1004600030000019514132462B4603B0BDE8F04F31
:1004700000F005BA0098012240000023D0EB0202F0
:1004800063EBE073009821464FEAE074B8EB00009C
:1004900061EB0401E9E783F000435BE781F0004191
:1004A00058E72DE9FE4F81EA030404F0004421F0EF
:1004B000004100944FF0000B23F0004350EA010488
:1004C0005ED052EA03045BD0C3F30A54C1F30A5569
:1004D0002C44A4F2F3340194A0FB0254C1F31301A1
:1004E00041F48011C3F3130343F4801301FB02446E
:1004F00000FB034E840A970A44EA815447EA835773
:10050000A4FB076802958D0A05FB07854FEA932C2B
:1005100004FB0C542705029D4FEA065847EA16379C
:10052000B5EB08056EEB070C870E920E47EA8117B4
:1005300042EA8312A7FB0201B6EB0B0164EB000455
:100540002B0D43EA0C335E1844EB1C50DA4651463F
:10055000E7FB0201C5F313044FEA0B3343EA1453DC
:100560004FEA0432019C43EA0603A4F10C0402940E
:10057000009CCDE900B400F091F903B0BDE8F08F24
:1005800000200146F9E72DE9F04D81EA030404F06B
:10059000004B21F0004514464FF0000A23F00041C3
:1005A00050EA050220D054EA01021DD0C5F30A57D3
:1005B0000246C5F31303C1F31300C1F30A5640F416
:1005C000801543F48013A7EB0608101BD64608F2EB
:1005D000FD3873EB050002D308F1010801E0921821
:1005E0005B41B8F1000F03DA00200146BDE8F08D51
:1005F00000204FF48011064684460EE0171B73EB73
:10060000050705D3121B63EB050306434CEA010CF7
:1006100049084FEA300092185B4150EA0107EDD1DA
:1006200052EA030012D082EA040083EA050108437B
:1006300005D0101BAB4106D20122002306E00022A8
:100640004FF0004302E06FF0010253101AEB060076
:100650004CEB085110EB0A0041EB0B01BDE8F04DEB
:1006600000F00DB970B521F0004303430CD0C1F385
:100670000A550024D5EB040564EB0403D617AD1A24
:10068000B34102DB0020014670BD201841EB02514E
:1006900070BDC10F80EAE0700844CA0796230021AC
:1006A00000F0BFB80EB5C10F80EAE0700844CA0779
:1006B000002140F233438DE80E000A460B4600F05D
:1006C000EDF803B000BD0EB540F2334102910021B8
:1006D000CDE900110A460B4600F0E0F803B000BD7A
:1006E00030B5041E71F1000404DB4FF000444042B9
:1006F00064EB0101141E73F1000405DB1C464FF08E
:100700000043524263EB04038B4208BF824230BD78
:1007100030B5041E71F1000404DB4FF00044404288
:1007200064EB0101141E73F1000405DB1C464FF05D
:100730000043524263EB0403994208BF904230BD2C
:1007400030B50B46014600202022012409E021FAA1
:1007500002F59D4205D303FA02F5491B04FA02F59E
:100760002844151EA2F10102F1DC30BD2DE9F05F35
:100770000546002092469B46884606468146402410
:100780001BE02846414647462246FFF719FD5346DF
:100790005A46C01A914110D311461846224600F01D
:1007A00016F82D1A67EB01084F462246012000215A
:1007B00000F00DF817EB00094E41201EA4F10104D2
:1007C000DFDC484631462A464346BDE8F09F202AF2
:1007D00004DB203A00FA02F1002070479140C2F198
:1007E000200320FA03F3194390407047202A06DBC8
:1007F000CB17203A41FA02F043EAE07306E041FAEF
:1008000002F3D040C2F120029140084319467047DC
:100810000029A8BF7047401C490008BF20F0010014
:10082000704710B4B0FA80FC00FA0CF050EA0104F2
:1008300004BF10BC704749B1CCF1200421FA04F484
:1008400011FA0CF118BF012121430843A3EB0C015D
:10085000CB1D4FEA00614FEA102042BF002010BCC0
:10086000704700EBC35010440029A4BF10BC704770
:10087000401C490008BF20F0010010BC704710B5B3
:10088000141E73F1000408DA401C41F100019218B3
:100890005B411A4301D120F0010010BD2DE9F04D5C
:1008A00092469B4611B1B1FA81F202E0B0FA80F2B1
:1008B00020329046FFF78BFF04460F4640EA0A00BD
:1008C00041EA0B0153465A46084313D0114653EAF6
:1008D000010019D0C8F140025046FFF771FC0546EF
:1008E0000E46504659464246FFF771FF084305D071
:1008F000012004E020463946BDE8F08D0020054384
:1009000046EAE0762C4337430A986305E40AA0EBF5
:1009100008000022FD0A44EA47540A3002D50020AC
:100920000146E9E7010510196941DDE908450019AB
:100930006941BDE8F04DA2E72DE9F04D00231A46CC
:100940001B1A8A4103DB00200146BDE8F08DC1F38C
:100950000A52C1F3130141F480154FF0000BD10787
:1009600002D100186D41521E0027044640F2FF11CB
:10097000384601EB620A3E468046024600204FF4AC
:100980008011FFF71DFCC2197141BB1846EB010035
:10099000B4EB030C75EB000C04D3E41A65EB000513
:1009A00017460E46241908F101006D41804634288F
:1009B000E3DDF91946EB0600091BA84103D24FF00D
:1009C000FF32134601E0002213461BEB070046EB03
:1009D0000A51BDE8F04DFFF752BFC1F30A52C1F30F
:1009E000130140F2FF3341F480119A4202DA0020F1
:1009F0000146704740F233439A42A2F2334202DC8E
:100A00005242FFF7DDBBFFF7E2BE0000064C074D88
:100A100006E0E06840F0010394E8070098471034CE
:100A2000AC42F6D3FFF766FBE4580008045900080F
:100A300070B58C1810F8015B15F0070301D110F8A0
:100A4000013B2A1106D110F8012B03E010F8016BCD
:100A500001F8016B5B1EF9D12B0705D40023521E50
:100A60000DD401F8013BFAE710F8013BCB1A921CB8
:100A700003E013F8015B01F8015B521EF9D5A142B6
:100A8000D8D3002070BDFEE7014800F021B8000077
:100A9000F0040020014800F01BB8000034050020DD
:100AA00030B590F840500124AC40C56B6C600468D0
:100AB00063604368102B036803D099600068C260CC
:100AC00030BD9A600068C16030BD704772B6FEE705
:100AD0002DE9F05FC16B0C6801680B68D0F840C06D
:100AE000042202FA0CF2494DDFF824A1494E4A4F84
:100AF000DFF828B1DFF828E122422CD05A072AD5A6
:100B00000A68920603D40A6822F004020A600168A7
:100B1000A94201D1042219E0514501D1402215E03A
:100B2000B14202D14FF4806210E0B94202D14FF4D9
:100B300080420BE0594502D14FF4802206E0714516
:100B400002D14FF4800201E04FF080622F49083952
:100B50004A60C16A3BE04FF0020808FA0CF818EA54
:100B6000040F4FF000094FF0010235D05FEA83789F
:100B700032D50B689B0605D40B6823F00A030B6083
:100B800080F821200168A94201D1022219E05145D3
:100B900001D1202215E0B14202D14FF4007210E0E1
:100BA000B94202D14FF400520BE0594502D14FF443
:100BB000003206E0714502D14FF4001201E04FF01F
:100BC0000072124908394A6080F82090816A002931
:100BD0001AD0BDE8F05F0847082505FA0CF5254254
:100BE00012D01B0710D50B6823F00E030B6090F892
:100BF0004010C36B02FA01F15960826380F8212032
:100C000080F82090016BE2E7BDE8F09F0800024009
:100C10001C000240300002404400024058000240E4
:100C20006C00024030B528B308C813491422194497
:100C3000B1FBF2F18900C163104981630221417760
:100C40001A6843F6F0718A43D0E900142143D0E9D1
:100C500002452C43214304692143446921438469AB
:100C6000214311431960002141630122427701773A
:100C7000084630BD012030BDF8FFFDBF0000024036
:100C800070B5044690F82000002501280CD0012002
:100C900084F8200094F821600020012E06D084F80A
:100CA00020000225284670BD022070BD022684F86F
:100CB0002160A0632068066826F0010606602046D1
:100CC000FFF7EEFEE06A00282068016802D041F0DC
:100CD0000E0106E021F0040101602068016841F086
:100CE0000A0101602068016841F001010160D9E753
:100CF00070B5044600F004F90546601C02D00448B3
:100D00000078044400F0FCF8401BA042FAD370BD08
:100D1000100000202DE9F84FDFF8B8910024A9F168
:100D2000040B23460F2709F1040AABF1040EC9E0B6
:100D30000125A5402A40AA427DD1674ED1F804C0C2
:100D4000ACEB0608B44532D014DCBCF1030F3AD04A
:100D500009DCBCF1000F2AD0BCF1010F1CD0BCF1A2
:100D6000020F31D11DE0BCF1110F17D0BCF1120FF1
:100D70002AD119E0B8F5881F19D006DCB8F5803FF4
:100D800015D0B8F5801F1FD111E0B8F5001F0ED0A7
:100D9000B8F5041F18D10AE0CB6815E0CB681B1D1D
:100DA00012E0CB6808330FE0CB680C330CE08B68A3
:100DB0002BB1012B4FF0080303D0456104E004235D
:100DC00002E0056100E00023FF2A01D8064601E0A9
:100DD00000F104064FEA840501D9A5F12005D6F8F3
:100DE000008007FA05FC28EA0C0803FA05F548EA32
:100DF0000508C6F800804D68ED0062D5374DAE6934
:100E000046F00106AE61AD6924F0030605F0010568
:100E10000095334D06EB050CDCF80850A607360F9D
:100E200007FA06F825EA0805DFF8B880404503D13F
:100E30004FF0000817E044E0DFF8AC80404502D1F5
:100E40004FF001080FE0DFF8A480404502D14FF0D9
:100E5000020808E0DFF89880404502D14FF003080F
:100E600001E04FF0040808FA06F848EA0508CCF853
:100E700008804D68D9F80060ED024D4601D5164353
:100E800000E096432E604D68DAF80060AD025546EA
:100E900001D5164300E096432E604D68DBF80060F4
:100EA000AD035D4601D5164300E096432E604D68C4
:100EB000DEF80060ED03754601D5164300E0964369
:100EC0002E60641C0D682A46E5407FF431AFBDE812
:100ED000F88F0000080401400000111000100240CB
:100EE0000000014000080140000C014000100140DA
:100EF000001401400AB1016170470904FBE70000DA
:100F000001488068704700001000002070B50400A0
:100F100025D094F83D00002520B984F83C502046A7
:100F200000F078FA242084F83D002068016821F060
:100F3000010101602068016841F4004101602068FE
:100F4000016821F40041016000F016FC4D4A61681F
:100F5000914201D84C4900E04C49884201D201201D
:100F600070BD4B492368B0FBF1F15E6826F03F0687
:100F70000E435E606368934206D94FF496735943FB
:100F80004FF47A73B1FBF3F12368491C1E6A26F013
:100F90003F06314319626168914210D84900401EF2
:100FA000B0FBF1F2521CC2F30B02042A01D204205E
:100FB00022E0B0FBF1F0401CC0F30B001CE0A26883
:100FC000F2B301EBC10303EB0116431EB3FBF6F3CF
:100FD0005B1C43F480431B0549D092B301EBC10273
:100FE00002EB0111401EB0FBF1F0401CC0F30B00FE
:100FF00040F4804040F400402168CA694CF6FF7319
:101000009A431043C861D4E907100143206802687D
:1010100022F0C00211430160D4E9030101432068BA
:10102000826848F2FF339A4311438160D4E9050195
:1010300008432168CA6822F0FF021043C86001E03B
:101040000EE016E02068016841F0010101602564AE
:10105000202084F83D00256384F83E50002070BDB8
:1010600001EB4106431EB3FBF6F35B1CB3E7012023
:10107000C2E701EB4101401EB0FBF1F0401CC0F3A0
:101080000B00B7E7A086010080841E0000093D0028
:1010900040420F002DE9FF4F83B00025DDE91079B4
:1010A0009A4693460446DDF848800095FFF728FFEE
:1010B000064694F83D0020287CD119230122854959
:1010C0002046009601F0A2FB0028F5D194F83C00E0
:1010D00001286FD0012084F83C0020680168C9070E
:1010E00003D1016841F0010101602068016821F429
:1010F00000610160222084F83D00402084F83E0019
:1011000025646762A4F82A90608D20857248E062A9
:10111000CDE9008653465A462046049901F078FAF4
:1011200000287DD1208DDFF8B491202768B10128F7
:1011300014D00228206801681ED041F4806101604B
:101140002068416980690090B6E020684169816942
:101150000091016841F400710160ADE02068016810
:1011600021F48061016072B6206841698169009153
:10117000016841F400710AE041F40061016072B657
:101180002068416981690091016821F480610160F2
:1011900062B691E0032868D801280CD002284346A3
:1011A0004FF000024946204600960FD001F02EFB7A
:1011B000B0BB10E08BE032464146204601F0CCFB4C
:1011C00070BB20680069616A08706CE001F01EFB6A
:1011D00030BB72B634E02068016821F480610160A0
:1011E00072B620680069616A0870606A401C6062BB
:1011F000208D401E2085608D401E6085384846F257
:10120000A8110068B0FBF1F0C0EBC00000EB80005B
:101210000090401E009008D020684069C04300E064
:1012200029E040070CD50098F3E744F8305F677376
:10123000A573206940F02000206162B625731AE092
:101240002068016841F40071016020680069616AEA
:101250000870606A401C6062218D491E2185618D85
:10126000491E618562B621681BE032464146204630
:1012700001F072FB18B1012007B0BDE8F08F2068C3
:101280000069616A0870606A401C6062218D491EB5
:101290002185618D491E618521684A69D2435207C3
:1012A0000AD409690170606A401C6062208D401E8A
:1012B0002085608D401E6085208D00287FF46AAFF8
:1012C00084F83D7084F83E5084F83C50D4E7022006
:1012D000D2E70000020010000000FFFF0400010040
:1012E0001C0000202DE9FF4F83B09A46DDE91197DD
:1012F00093460446DDF84080FFF702FE054694F869
:101300003D0020287FD11923012240492046009525
:1013100001F07CFA002876D194F83C00012872D0C4
:10132000012084F83C0020680168C90703D10168E6
:1013300041F0010101602068016821F40061016051
:10134000212084F83D00402084F83E0000262664D9
:10135000C4F82480A4F82A90608D20852C48E0628F
:10136000CDE9007553465A462046049901F0CEF95E
:1013700070B930E02A463946204601F025FB58B1C5
:10138000206C042804D12068016841F400710160D8
:10139000012007B0BDE8F08F606A2168007808611D
:1013A000606A401C6062218D491E89B22185628D70
:1013B000521E628522685369DB435B070BD469B117
:1013C00000781061606A401C6062208D401E20859C
:1013D000608D401E6085208D0028CBD12A4639467D
:1013E000204601F0E7F90028CAD154F83D0B016806
:1013F00041F400710160202004F81E09E677667749
:101400000020C6E7FFE70220C3E70000020010004B
:101410000000FFFF10B586B00021009101910291FC
:10142000039100681349884222D1134CA06940F00F
:101430000800A061A069694600F0080004904FF41C
:101440004070009012200190032003900B48FFF79A
:1014500061FC0B48416841F0E06141F002014160EC
:10146000E06940F40010E061E06900F400100490CD
:1014700006B010BD0054004000100240000C0140B6
:101480000000014002488168027811448160704781
:1014900010000020074810B5016841F010010160FC
:1014A000032000F0A1F80F2000F006F800F04AF841
:1014B000002010BD0020024030B505461C4887B012
:1014C000816941F400618161806906A900F40060CE
:1014D000009001A800F030F900F05EF91549164AB5
:1014E000B0FBF1F11548491E0260416040F2E7325D
:1014F0000021C0E903218160816100F0D3FC040078
:1015000012D10E4800F0FCFC04000DD1192000F0AF
:101510003DF8102D07D200222946192000F044F88A
:101520000748056000E0012407B0204630BD0000F8
:101530000010024040420F00002C0140C005002076
:10154000140000200F4808B5816941F00101816154
:10155000816901F001010091C16941F08051C161CF
:10156000C069002200F0805000900F21901E00F012
:101570001BF80548416821F0E06141F000714160CD
:1015800008BD00000010024000000140002809DBF7
:1015900000F01F02012191404009800000F1E0208D
:1015A000C0F8001170470000F0B40E4B1B680C46E9
:1015B000C3F30223C3F10705042D00D90425191D27
:1015C000072901D2002300E0DB1E012606FA05F1FF
:1015D000491E214099409E40761E16403143F0BC82
:1015E00002F034BB0CED00E0064900F00702086889
:1015F0004FF6FF03184040EA0220034A10430860F8
:10160000704700000CED00E00000FA052DE9F047FE
:101610000F46050061D0434E306800F00700B84225
:1016200009D2306820F0070038433060306800F09D
:101630000700B84251D128683B4C810712D54007BA
:1016400003D5606840F4E06060602878000703D547
:10165000606840F4605060606068A96820F0F00045
:10166000084360602878C00728D06868012810D037
:101670002168022810D0890700292EDA616821F03C
:10168000030101436160FFF73BFC804641F288396A
:101690000DE021688903EFE78901EDE7FFF730FCF2
:1016A000A0EB0801494502D90320BDE8F087606836
:1016B000696800F00C00B0EB810FEFD1306800F0EA
:1016C0000700B8420BD9306820F00700384330607B
:1016D000306800F00700B84201D00120E5E7287823
:1016E000400705D56068E96820F4E0600843606061
:1016F0002878000706D56068296920F4605040EA20
:10170000C100606000F058F86168084AC1F3031135
:10171000515CC8400649086006480068FFF7CCFEE7
:101720000020C2E70020024000100240FE570008DF
:101730001C000020140000200F2202600C4A536895
:1017400003F003034360536803F0F00383605368BE
:1017500003F4E063C36052684FF4E06303EAD2022B
:1017600002610448006800F007000860704700004C
:101770000010024000200240044805490068496802
:10178000044AC1F30221515CC84070471C0000208C
:10179000001002400E5800080448054900684968D6
:1017A000044AC1F3C221515CC84070471C000020AC
:1017B000001002400E5800080E4A51680E4801F011
:1017C0000C03042B11D0082B0FD10C48C1F3834319
:1017D000C903C05C0AD55168084AC1F34041921E52
:1017E000515C054A5043B0FBF1F07047044948434F
:1017F000704700000010024000127A00EE57000807
:1018000000093D002DE9F84F040070D02078C04D4C
:10181000C00749D06868C0F38100012807D0686814
:10182000C0F38100022809D16868C00306D5286882
:10183000800339D560680028E7D035E06068B0F5EE
:10184000803F0BD010B1B0F5A02F11D0286820F444
:1018500080302860286820F4802002E0286840F466
:1018600080302860606890B1FFF74AFB06460AE0C6
:10187000286840F480202860F0E700BFFFF740FBB5
:10188000801B642873D828688003F7D50CE0FFF725
:1018900037FB064605E000BFFFF732FB801B6428DC
:1018A000F0D828688003F7D420789A4E80074FF04C
:1018B00001094FF0000839D5686810F00C0F07D007
:1018C0006868C0F38100022809D16868C00306D4A3
:1018D0002868800714D52069012808D110E0206904
:1018E000B0B1C6F80090FFF70BFB074605E00AE130
:1018F000FFF706FBC01B0228C4D828688007F7D56D
:101900002868616920F0F80040EAC10028600DE015
:10191000C6F80080FFF7F4FA074604E0FFF7F0FA94
:10192000C01B022823D828688007F7D42078000736
:101930002CD57948A169D9B1C0F80090FFF7E0FA39
:10194000074604E0FFF7DCFAC01B02280FD8686ADC
:101950008007F7D571484FF4FA510068B0FBF1F0F9
:10196000009000BF0098411E0091FAD20EE080E086
:10197000C0F80080FFF7C4FA074604E0FFF7C0FA9A
:10198000C01B022875D8686A8007F7D42078400702
:1019900060D5E8690027C00008D4E86940F08050AD
:1019A000E861E869012700F0805000905C48016818
:1019B000C90513D40168834641F480710160FFF7C3
:1019C0009FFA824606E000BFFFF79AFAA0EB0A00F2
:1019D00064284ED8DBF80000C005F5D5E068012882
:1019E0000AD008B1052813D0286A20F00100286227
:1019F000286A20F0040002E0286A40F00100286212
:101A0000E06841F2883B98B1FFF77AFA82460BE032
:101A1000286A40F004002862EEE700BFFFF770FA82
:101A2000A0EB0A0159455AD8286A8007F6D50CE080
:101A3000FFF766FA824605E0FFF762FAA0EB0A01BB
:101A400059454CD8286A8007F6D41FB1E86920F0C0
:101A50008050E861E06988B36968C1F381010229B7
:101A600044D00228C6F8608004D0FFF749FA044643
:101A700038E034E0FFF744FA074604E0FFF740FAA5
:101A8000C01B02282BD828688001F7D4206AB0F543
:101A9000803F05D16868A16820F400300843686081
:101AA000D4E908010843696821F4741108436860A7
:101AB000C6F86090FFF724FA044606E025E000BF70
:101AC000FFF71EFA001B022809D828688001F7D505
:101AD0001BE000BFFFF714FA001B022802D9032005
:101AE000BDE8F88F28688001F4D40EE00128F7D013
:101AF0006868226A00F48031914204D1616A00F47E
:101B00007010884201D00120EAE70020E8E70000D9
:101B10000010024000004242800442421C000020AB
:101B20000070004070B5040009D0606A002540B123
:101B300025616561A56294F8510040B10CE0012077
:101B400070BD6068B0F5827FF4D0E561F2E784F89B
:101B50005050204600F040F8022084F851002068E0
:101B6000016821F040010160A088218900F48270A1
:101B700001F404410843A18901F400610843217C78
:101B800001F002010843217D01F001010843218B8E
:101B900001F400710843217F01F03801084394F8F3
:101BA000201001F080010843218D01F40051084309
:101BB00021680860A069042101EA1040216848609A
:101BC0002068C16921F40061C1616565012084F864
:101BD0005100002070BD000030B585B00024009495
:101BE00001940294039400681449884223D1144854
:101BF000816941F480518161816901F480510491CE
:101C0000816941F00401816180690E4D00F004009A
:101C10000490A020009002200190032003906946C8
:101C20002846FFF777F84020CDE9000469462846AA
:101C30000294FFF76FF805B030BD0000003001409E
:101C400000100240000801402DE9FF4F81B004461A
:101C500090F8500000260E9F1D4693464FF0010954
:101C600001280FD04FF0010A84F850A0FFF748F97F
:101C7000804694F85100616801280DD0B1F5827F4B
:101C800008D103E0022005B0BDE8F08FA16809B9D2
:101C9000042801D00226C9E00298002865D0BBF1D3
:101CA000000FFBD0002DF9D094F85100042802D089
:101CB000052084F8510000206065C4F838B0E5873D
:101CC000A58702992163E586A58620646064206863
:101CD0000168490603D4016841F040010160E068F1
:101CE000B0F5006F606803D0F0B3012D47D081E0FC
:101CF00008B1012D3CD1206B21680088C860206BA1
:101D0000801C2063E08E401EE08631E02068816800
:101D100089070FD5E18E69B1B9F1010F0AD1216BA5
:101D20000988C160206B801C2063E08E401EE08625
:101D30004FF0000920688168C9070CD0E18F51B1CC
:101D4000C068A16B0880A06B801CA063E08F401E60
:101D5000E0874FF00109FFF7D3F8A0EB0800B84285
:101D600006D3781C04D001E009E05BE003265BE0C9
:101D7000E08E0028CAD1E08F0028C7D140E0206B58
:101D8000216800780873206B401C2063E08E401EA1
:101D9000E0862FE02068816889070FD5E18E69B160
:101DA000B9F1010F0AD1216B09780173206B401C36
:101DB0002063E08E401EE0864FF0000920688168B5
:101DC000C9070CD0E18F51B1C068A16B0870A06B3E
:101DD000401CA063E08F401EE0874FF00109FFF731
:101DE0008FF8A0EB0800B84202D3781C02D0BAE703
:101DF000002FB8D0E08E0028CCD1E08F0028C9D1C8
:101E000042463946204601F0C7FB18B10126202082
:101E100060650BE0A06818B92068C1688068009010
:101E2000606D08B1012601E084F851A0002084F81B
:101E30005000304627E770477047000070B590F8B3
:101E40003C20012A26D0012480F83C40022280F860
:101E50003D2003685A689D6822F070060A68324384
:101E60005A600D4B02689A4208D0B2F1804F05D0FB
:101E70000A4B9A4202D00A4B9A4204D1496825F093
:101E800080031943916080F83D40002180F83C10A8
:101E9000084670BD022070BD002C014000040040C7
:101EA0000008004010B5040003D094F83D0010B1C4
:101EB00007E0012010BD002084F83C00204600F01F
:101EC0001EF8022084F83D00211D206801F04EFC20
:101ED000012084F8460084F83E0084F83F0084F82E
:101EE000400084F8410084F8420084F8430084F8FC
:101EF000440084F8450084F83D00002010BD704780
:101F000090F83D10012901D001207047022180F88E
:101F10003D100168CA6842F00102CA6000680B49BE
:101F2000884208D0B0F1804F05D00949884202D0DC
:101F30000849884204D1816801F00701062903D0CD
:101F4000016841F00101016000207047002C014050
:101F500000040040000800407047704770B5044618
:101F6000006801694FF00005C943890715D4C168AD
:101F7000C943890711D4E91E016101202077206837
:101F800080698007204602D0FFF7E7FF04E000F0F9
:101F9000BFF8204600F094F9257720680169C9430D
:101FA000490717D4C168C943490713D46FF0040126
:101FB0000161022020772068806910F4407F20466C
:101FC00002D0FFF7CAFF04E000F0A2F8204600F0BC
:101FD00077F9257720680169C943090716D4C168D4
:101FE000C943090712D46FF008010161042020776A
:101FF0002068C0698007204602D0FFF7AEFF04E0EA
:1020000000F086F8204600F05BF92577206801692A
:10201000C943C90617D4C168C943C90613D46FF0B0
:1020200010010161082020772068C06910F4407F0A
:10203000204602D0FFF791FF04E000F069F8204647
:1020400000F03EF9257720680169C943C90708D126
:10205000C168C943C90704D1891E0161204600F047
:10206000FBF920680169C943090609D4C168C9435D
:10207000090605D46FF0800101612046FFF7DBFE01
:1020800020680169C943490609D4C168C9434906A2
:1020900005D46FF040010161204600F0E7F92068A7
:1020A0000169C94389060BD4C168C943890607D4AD
:1020B0006FF0200101612046BDE87040FFF7BCBE13
:1020C00070BD000000B585B0002100910191029122
:1020D000039100680B49884211D10B48816941F096
:1020E000080181618069694600F008000490C02001
:1020F00000900220019003900448FEF70BFE05B00B
:1021000000BD00000008004000100240000C01402B
:10211000704770B5044690F83C0000260D46012833
:102120000FD0012084F83C006AB1042A1DD0082A8F
:102130002FD00C2A3FD00126002084F83C003046E6
:1021400070BD022070BD206801F0C8FB2068816965
:1021500041F0080181612068816921F004018161F9
:10216000206881692A69114311E0206801F0DEFBD3
:102170002068816941F4006181612068816921F4EE
:1021800080618161206881692A6941EA0221816157
:10219000D2E7206801F0F6FB2068C16941F0080130
:1021A000C1612068C16921F00401C1612068C16971
:1021B0002A69114311E0206801F010FC2068C16910
:1021C00041F40061C1612068C16921F48061C1618D
:1021D0002068C1692A6941EA0221C161ACE710B5F2
:1021E000040003D094F83D0010B107E0012010BDB9
:1021F000002084F83C00204600F01EF8022084F8FD
:102200003D00211D206801F0B1FA012084F846004C
:1022100084F83E0084F83F0084F8400084F84100D0
:1022200084F8420084F8430084F8440084F84500B0
:1022300084F83D00002010BD2DE9F84F05460068E8
:102240001B49884231D11B48C16941F00401C16179
:10225000C0691A4C00F004000090174810260027AF
:102260004FF080084FF480794FF4806A4FF0200BD4
:1022700084E8C10F7002E0612046FEF7D3FC08B18C
:10228000FEF724FC6C6265620C4C0B4844343C3015
:1022900084E8C10F4FF40050E0612046FEF7C2FC15
:1022A00008B1FEF713FCAC626562BDE8F88F000070
:1022B000000800400010024008000240F004002026
:1022C000704770472DE9F04117460D0004464FF066
:1022D00000060CD0042D11D0082D16D094F8410022
:1022E000022819D094F84100012818D07CE094F815
:1022F0003E00022810D094F83E00F5E794F83F0025
:10230000022809D094F83F00EEE794F84000022834
:1023100002D094F84000E7E70220BDE8F081002FEA
:1023200062D0002B60D04649464ADFF81CC102202B
:102330004DB1042D18D0082D27D084F841000C2D64
:1023400044D0012679E084F83E00606A8162606AC8
:102350003946C262606AC0F830C02268606A3432AE
:10236000FEF78EFC88BB21E084F83F00A06A816202
:10237000A06A3946C262A06AC0F830C02268A06A6A
:102380003832FEF77DFC00BB15E084F84000E06ABF
:102390008162E06A3946C262E06AC0F830C02268F1
:1023A000E06A3C32FEF76CFC78B909E02068C1684D
:1023B00041F400711EE02068C16841F4806119E0B9
:1023C0002068C16841F4006114E00DE0206B816277
:1023D000206B3946C262206BC0F830C02268206B87
:1023E0004032FEF74DFC08B1012096E72068C16835
:1023F00041F48051C16001222946206801F0ECF9C6
:1024000012492068884203D1426C42F4004242647F
:102410002068884208D0B0F1804F05D00C4988422E
:1024200002D00C49884204D1816801F007010629D5
:1024300003D0016841F00101016030466DE7000002
:10244000F33700085138000889380008002C014093
:10245000000400400008004000680349884201D1A0
:10246000FFF710B870470000002C0140704770B5AE
:10247000040004D094F84100002510B106E00120CA
:1024800070BD84F84050204600F024F8242084F8E1
:1024900041002068C16821F40051C160204601F06C
:1024A000BFFA2068016921F4904101612068416907
:1024B00021F02A0141612068C16841F40051C160E6
:1024C0006564202084F8410084F8420065630020A0
:1024D00070BD000030B585B00024009401940294D2
:1024E000039400681449884224D11448816941F456
:1024F00080418161816901F480410491816941F0E9
:102500000401816180690E4D00F0040004904FF4D5
:102510000070009002200190032003906946284635
:10252000FEF7F8FB2815CDE9000469462846029419
:10253000FEF7F0FB05B030BD00380140001002404E
:10254000000801402DE9F843044690F841001F4679
:1025500016460D46202802D00220BDE8F8837DB142
:1025600076B100206064212084F84100FEF7C8FCA9
:10257000A6848046E684A068B0F5805F02D003E0C0
:102580000120EAE7206910B12E4600250EE0002662
:102590000CE08021204601F09FFAA0B9AEB116F8F8
:1025A000010B21684860E08C401EE084E08C4346CB
:1025B0004FF0000200970028EBD14FF04001204679
:1025C00001F08AFA30B10320C7E735F8020BC0F3F7
:1025D0000800E6E7202084F841000020BDE7FEE780
:1025E00001684A69D24352050FD46FF480624A6190
:1025F000002140F8301F202242738173026942F0AB
:10260000040202610173012070470020704700003E
:102610002DE9F84F0446006889460B9D01689846ED
:10262000174641F4806101602068016841F48071BF
:10263000016000954FF0011B0022594620460A9B7D
:1026400000F0E4F84FF4007A40B120680068C0055B
:1026500001D5C4F840A00320BDE8F88F216809F037
:10266000FE0008612B46284920460A9A00F016F918
:10267000F0BB20684169806900902A4620460A998B
:1026800000F0A2F940B1206C04283AD1206801681A
:1026900041F40071016034E0FEB2B8F1010F09D0DD
:1026A0002168380A08612A4620460A9900F08CF908
:1026B0000028E8D1206806612A4620460A9900F0E1
:1026C00083F90028DFD12068016841F4807101603E
:1026D00000950022594620460A9B00F097F80028F2
:1026E000B3D1216809F0FF0040F00100086100E06B
:1026F00007E02B46044920460A9A00F0CFF800284C
:10270000AAD00120A8E70000020001002DE9F8434B
:10271000044600680D46DDE90897016898461646AC
:1027200041F4807101604B4600224FF001112046B8
:10273000009700F06BF848B120680068C00502D52A
:102740004FF4007020640320BDE8F883216805F091
:10275000FE0008613B464A461549204600F09EF8B7
:1027600088B920684169806900903A464946204608
:1027700000F02AF948B1206C042804D120680168CF
:1027800041F4007101600120DEE7F5B2B8F1010FFC
:1027900009D02168300A08613A464946204600F0CF
:1027A00013F90028E7D1206805610020CCE700007C
:1027B0000200010070B516460D4604461EE0204694
:1027C000FFF70EFF08B1012070BD681C16D0FEF7A0
:1027D00097FB801BA84200D885B920684069C04398
:1027E00040070BD5002044F8300F20216173A073FF
:1027F000216941F0200121612073E4E720684069EC
:10280000C0434007DBD4002070BD00002DE9F04735
:10281000984617460D460446C1F30746DDF820905A
:102820002AE000BFB8F1FF3F26D0FEF769FBA0EB1E
:102830000901414502D8B8F1000F1DD12068012ED1
:1028400016D0806925EA00000004000C12D0002098
:10285000B84211D1002044F8300F20216173A073D9
:10286000216941F02001216120730120BDE8F0873A
:102870004069E7E70120EBE72068012E0AD0806974
:1028800025EA00000004000C06D00020B842C9D0A0
:102890000020EBE74069F3E70120F7E72DE9F04777
:1028A000984616460D4604464FF000094FF0200AA0
:1028B000C1F3074723E020684069C043400515D4B1
:1028C0002068016841F40071016021686FF4806044
:1028D0004861C4F8309084F83DA084F83E90216CA3
:1028E00041F00401216484F83C9021E0701C06D082
:1028F000FEF706FBA0EB0800B04203D816B1012F8B
:102900001FD021E02068012F15D0806925EA000042
:102910000004000C18D000BF44F8309F84F80DA0CC
:1029200084F80E90216941F02001216184F80C9017
:102930000120BDE8F087406925EA00000004000C92
:10294000EAD12068406901E02068806925EA00003A
:102950000004000CAFD1ECE72DE9F04100259046D2
:102960000E460446202728E04069C043C0060CD428
:1029700054F8301B6FF01000486144F81059677725
:10298000A577206A2062257714E0FEF7B9FAA0EB5C
:102990000800B04200D886B920684069C0434006AC
:1029A0000BD544F8305F6773A573206940F02000B1
:1029B000206125730120BDE8F08120684169C94389
:1029C0004906D1D40020F6E770B516460D460446F8
:1029D0001EE02046FFF704FE08B1012070BD681C10
:1029E00016D0FEF78DFA801BA84200D885B9206862
:1029F0004069C04300060BD5002044F8300F202169
:102A00006173A073216941F0200121612073E4E723
:102A100020684069C0430006DBD4002070BD2DE96A
:102A2000FF5F96B024AD044695E88301D4E90823FE
:102A300008930692FDF72FFD3A464346FDF731FD18
:102A4000D4E90623FDF786FC07911290D4E910A380
:102A50005246384641460993FDF723FDCDE9000172
:102A6000D4E90C939B464A46FDF715FDD4E90E23A5
:102A7000CDE90B32FDF70FFDD4E90023FDF76AFC29
:102A80003A464346FDF70DFDD4E90A23FDF762FC03
:102A900005460E46DDE900014A465B46FDF7FEFCB1
:102AA0008B460490DDE90001DDE90B32FDF7F6FC11
:102AB0000D910090D4E902013A464346FDF7F1FC3E
:102AC0005246099BFDF746FCCDE90E01D4E90423EB
:102AD00028463146FDF73EFC80468A4602460B46B4
:102AE00028463146FDF74FFD81460F464246534684
:102AF0000D990098FDF747FD80468A46DDE91801EB
:102B0000079B129AFDF7C7FC0B914A463B46109073
:102B1000FDF7C7FC079B129AFDF71CFCC4E90601F0
:102B200007911290404651460B9B109AFDF7B9FC55
:102B3000089B069AFDF70EFCC4E90801049806906C
:102B40002A46334648463946FDF7ABFC2A4633460B
:102B5000FDF7A4FCC4E90A015B4648463946069ADB
:102B6000FDF79FFC5B46049AFDF798FCC4E90C0155
:102B70002A46334640465146FDF793FC0D9B009A8A
:102B8000FDF78CFCC4E90E015B4640465146069AAF
:102B9000FDF787FCDDE90E23FDF780FCC4E9100199
:102BA000079912981AB0BDE8F09F10B5142000F0F4
:102BB000E4F8800705D10321BDE81040142000F09F
:102BC00062B910BD7CB50446002529460D2000F0F1
:102BD000F0F9932020702020607001A82346009017
:102BE000022219460C2000F05AF9010009D1225C9A
:102BF000401C5540C0B20428F9D3205CA84200D044
:102C0000022108467CBD30B585B08DF804008DF8F2
:102C10000510002001A9145C0D18401CC0B2AC7056
:102C20000628F8D300200C181A5C401CC0B222728F
:102C30000428F8D304A800900B460C220E2000F0C4
:102C40002EF9040004D1082000F097F8000700D402
:102C5000022405B0204630BD2DE9F0410E4607465E
:102C600015460421052000F026F880210A2000F0F6
:102C70000AF9002405E0395D092000F09AF9641C86
:102C8000E4B2B442F7D30321012000F092F9FF240B
:102C9000052000F072F8641E14F0FF0401D0400714
:102CA000F6D5222000F069F82870212000F065F8A0
:102CB0006870BDE8F08170B50C46054600F05DF81F
:102CC00020EA04012846BDE8704000F072B90EB554
:102CD00050208DF8040000208DF805000DF106024B
:102CE000022101A8FFF7B8FF02A801AB009004225F
:102CF00019460C2000F0D3F80EBD10B500F05CF8BA
:102D00008D212A2000F055F93E212B2000F051F9A9
:102D10001E212D2000F04DF900212C2000F049F952
:102D20007F21262000F045F98421182000F041F988
:102D30004021152000F03DF93D21112000F039F926
:102D4000BDE81040FFF731BF1CB50C4630212170A3
:102D50006070A21C02212046FFF77EFF01A82346D7
:102D60000090042219460C2000F099F818B9BDF81B
:102D70000410902900D002201CBD7E2101EA4000F1
:102D800040F0800000F0D8BB7CB50C46054607211A
:102D90000D2000F00EF9257001A8234600900122B5
:102DA00019460C2000F07BF818B9BDF80410102962
:102DB00000D002207CBD000010B51D4C0122114640
:102DC0002046FEF797F80A2001F00CFE00220121B0
:102DD0002046FEF78FF8642001F004FE0122114620
:102DE0002046FEF787F80A2001F0FCFD0F210120A4
:102DF00000F0DFF8642001F0F5FD3D21112000F026
:102E0000D8F81E212D2000F0D4F800212C2000F04D
:102E1000D0F88D212A2000F0CCF83E212B2000F0A4
:102E2000C8F84021BDE81040152000F0C2B80000ED
:102E3000000C014010B586B093218DF8041070216C
:102E40008DF80510002101AA435C5418491CC9B231
:102E5000A3700529F8D3072101A8D21DFFF7FCFEB6
:102E600004A801AB0090092219460C2000F017F8C5
:102E700018B9BDF81000182802D0002006B010BD07
:102E80009DF80400FAE770B50C460546FFF775FF9C
:102E900040EA04012846BDE8704000F08AB82DE9F8
:102EA000FF5F00270226DDF838A015468B468146D5
:102EB000B8460C2805D0B9F10E0F05D11227102005
:102EC00001E077273020804647F08001022000F0A3
:102ED00070F880210420FFF7EEFE80210A20FFF722
:102EE000D2FF0021012000F064F8002406E01BF866
:102EF0000410092000F05DF8641CA4B2AC42F6D3C3
:102F00004946012000F055F8B9F10C0F03D180219A
:102F10000D20FFF7B8FF4FF4FA650420FFF72DFFEF
:102F20006D1E2D0404462D0C04D0E00702D114EAD6
:102F3000080FF2D080210D20FFF7BDFE35B106202D
:102F4000FFF71BFF10F01B0F04D0022604B0304621
:102F5000BDE8F09F00263C40E00700D00126B9F113
:102F60000C0FF3D10A20FFF708FF04460C20FFF7EF
:102F700004FF10F007004FEAC40104D008390844E8
:102F8000AAF8000001E0AAF8001024B1102C04D91E
:102F90001024002503E00124FBE7002506E00920BA
:102FA000FFF7EBFE039948556D1CADB2A542F6D371
:102FB000CCE77E2202EA400000F0D6BA2DE9F041CB
:102FC00086B08046012504A8CDE9000564242B467F
:102FD0007522D02102944046FEF75CF89DF810005F
:102FE000682803D0012006B0BDE8F081002703AEB9
:102FF0008DF80C700096CDE9015401236B22D0218D
:103000004046FEF76FF907208DF80C000096CDE9D9
:10301000015401231922D0214046FEF763F98DF8AF
:103020000C700096CDE9015401231C22D0214046AA
:10303000FEF758F98DF80C700096CDE90154012384
:103040001B22D0214046FEF74DF90020CBE70000BF
:103050002DE9F04F89B00C4664230E2204A98DE8B7
:103060000E0001233B22D021FEF714F8BDF810001A
:1030700040BA00B22080BDF8121049BA09B261808E
:103080008946BDF8141049BA09B2A1808846BDF836
:10309000161049BA0FFA81FABDF8181049BA0FB2E2
:1030A0002784BDF81A1049BA0EB26684BDF81C1008
:1030B00049BA0DB2A584FDF7F5FA6FF00D0B5A462B
:1030C000FDF7D0FAC4E902014846FDF7EBFA5A468B
:1030D000FDF7C8FAC4E904014046FDF7E3FA00220F
:1030E000614BFDF750FAC4E906015046FDF7D1FAED
:1030F0005E49FDF7F1F85E49FDF796F82064384621
:10310000FDF7D0FA5B4F00223B46FDF73CFAC4E9DD
:103110000A013046FDF7C6FA00223B46FDF733FAB6
:10312000C4E90C012846FDF7BDFA00223B46FDF735
:103130002AFAC4E90E01FDF7E3FE4F4D2968401A53
:10314000FDF7C1FA00224D4BFDF71DFA81468A4674
:10315000FDF7D6FE2860B4F90010B4F90400494325
:1031600000FB0010FDF79EFA02F01AF80022054657
:103170000E461346FDF7B4FA10D0B4F90200FDF77D
:1031800091FA2A463346FDF7FEF901F02DFA3C4A42
:103190003C4BFDF786F90746884601E00027B84614
:1031A000B4F90400FDF77EFA0646B4F900000D46B6
:1031B0004042FDF777FA32462B4601F025FB304AB4
:1031C000304BFDF76EF9DFF8C0B005460E46002221
:1031D0005B46FDF785FA06D2D4E9140100222B4B99
:1031E000FDF796FA0DD30022284B28463146FDF70D
:1031F0008FFA0DD2D4E9140100225B46FDF770FA74
:1032000006D21D485030C0E90656C4E914560DE0F8
:10321000CDE9029AD4E90C01CDE9000116482A460D
:1032200033465030FFF7FBFBC4E91401D4E9140125
:1032300021F000410022154BFDF76AFA03D2E16A42
:1032400081F00041E162CDE9029AD4E90C01CDE9B7
:10325000000109483A4643460830FFF7E0FBC4E95D
:10326000120109B0BDE8F08F0029CC400000AA434C
:10327000B81E1242006060402000002000408F40D5
:10328000F8C1631ADCA54C40008056C0008056404F
:103290000D4808B5416941F00101416140690022D2
:1032A00000F00100009005210B20FEF77DF90B20B6
:1032B000FEF76CF9002205210E20FEF775F9BDE836
:1032C00008400E20FEF762B90010024010B59CB015
:1032D000FFF713FD1C2216496846FCF781FF002109
:1032E000684601F007FC134C11491C2220601C3178
:1032F00007A8FCF775FF002107A801F0FBFB0C49AC
:1033000060601C2238310EA8FCF76AFF00210EA86D
:1033100001F0F0FB0649A0601C22543115A8FCF70F
:103320005FFF002115A801F0E5FBE0601CB010BDB7
:103330007C57000800000020F0B585B00020009008
:103340000190029003902148816941F01001816150
:10335000816901F010010491816941F020018161CE
:10336000816901F020010491816941F004018161CA
:10337000816901F004010491816941F008018161D2
:103380008069134E00F0080004900022102130469E
:10339000FDF7B0FD0F4F002201213846FDF7AAFDD1
:1033A00001241020CDE90004032569463046CDE90B
:1033B0000245FDF7AFFC0094694638460194CDE91B
:1033C0000245FDF7A7FC05B0F0BD0000001002406B
:1033D00000080140000C01400D4810B50B49016088
:1033E0000C49416000214FF480428160C0E9031222
:1033F00041618161C1610162FDF788FD002803D050
:10340000BDE81040FDF762BB10BD00000054004055
:10341000FC030020A0860100104810B50E49016091
:103420004FF48271416000218160C1604FF40072ED
:103430000161C0E905120822C0E9072141628162E9
:103440000A21C162FEF76EFB002803D0BDE81040E0
:10345000FDF73CBB10BD00000030014050040020CF
:1034600010B58AB0002407941C2168460894FCF724
:10347000D0FE19481749C0E900144F21C0E90241A4
:1034800004618461FEF7ABFE08B1FDF71FFB0794F2
:1034900007A911480894FEF7D1FC08B1FDF716FB07
:1034A0006020CDE900040294002269460A48049491
:1034B000FEF72FFE08B1FDF709FB04226946064816
:1034C000FEF727FE08B1FDF701FB0348FEF7FAFD02
:1034D0000AB010BD00080040A80400200C4810B538
:1034E0000A4901604FF4E1314160002181600C2202
:1034F000C160C0E904128161C161FEF7B8FF002814
:1035000003D0BDE81040FDF7E1BA10BD003801401E
:1035100078050020FEE7FEE70EB501238DF80400D4
:103520000A20009002AA01A90248FEF78DFB9DF82F
:1035300008000EBD5004002070B50A4D044600225C
:1035400010212846FDF7D6FC2046FFF7E5FF0020B6
:10355000FFF7E2FF0446012210212846FDF7CAFCCE
:10356000204670BD0008014070B50A4C0E46054665
:10357000002210212046FDF7BDFC2846FFF7CCFFB6
:103580003046FFF7C9FF2046BDE8704001221021F8
:10359000FDF7B0BC0008014038B50B460092044668
:1035A0000022802100F008F8002804D0606D40F06F
:1035B00020006065032038BD2DE9F8431E46914682
:1035C00088460446089DFDF79BFC401B351AFDF715
:1035D00097FC074625480068C0F3CB30684338E0C5
:1035E000701C37D0FDF78CFCC01BA84203D215B16C
:1035F000009860B32CE02068416821F0E001416050
:103600006068B0F5827F0BD1A068B0F5004F02D0A2
:10361000B0F5806F04D12068016821F0400101609D
:10362000A06AB0F5005F09D12068016821F400515B
:1036300001602068016841F400510160012084F8B4
:103640005100002084F850000320BDE8F8830025D5
:10365000401E00902068816838EA010004D00021F3
:103660004945BDD10020F0E70121F9E71C00002009
:10367000012001F033FAFBE71CB5094C0849094861
:10368000FFF7E6FCD4E90401CDE90001D4E9022307
:1036900005A000F0B7FA642001F020FAEEE7000080
:1036A00050010020FC030020783A2566202D2D20B3
:1036B000793A25660A000000012001F00FFA142073
:1036C00001F062FCF8E701F08BFC012001F006FA42
:1036D000F9E7000010B5502080F31188BFF34F8F39
:1036E000BFF36F8F01F084FF18B104494FF0805091
:1036F0000860002080F3118810BD000004ED00E098
:1037000030B58FB028216846FCF783FD14210AA844
:10371000FCF77FFD01210804CDE90010002402948C
:1037200002250491CDE907504FF4E0100990684656
:10373000FEF768F808B172B6FEE70F20CDE90A057A
:103740004FF48060CDE90C4002210AA80E94FDF7E9
:103750005DFF002801D072B6FEE70FB030BD7047A4
:103760000148FEF7FBBB0000C0050020F0B5026871
:10377000164B174C174D4FF08047984205D0B84272
:1037800003D0A04201D0A84203D122F070064A68BB
:103790003243984205D0B84203D0A04201D0A8429B
:1037A00003D122F44074CA6822434C6922F080029B
:1037B000224302608A68C2620A688262984201D12A
:1037C0000969016301214161F0BD0000002C014045
:1037D000000400400008004010B501F01F03012163
:1037E000046A99408C430462016A9A401143016261
:1037F00010BD10B5446A0121626A824205D1217769
:103800008069F8B984F83E101CE0A26A824206D1B1
:10381000022222778069A8B984F83F1012E0E26A98
:10382000824206D104222277806958B984F8401078
:1038300008E0226B824205D108222277806908B90C
:1038400084F841102046FEF73BFD0020207710BD94
:1038500010B5446A616A814201D101200DE0A16A7C
:10386000814201D1022008E0E16A814201D10420B5
:1038700003E0216B814201D1082020772046FEF72A
:1038800020FD0020207710BD10B5446A0121626A36
:10389000824203D1217784F83E1019E0A26A824265
:1038A00004D10220207784F83F1011E0E26A8242BE
:1038B00004D10420207784F8401009E0226B824272
:1038C00004D10820207784F8411001E084F83D10ED
:1038D0002046FEF741FB0020207710BD30B5036A7B
:1038E000026A22F0010202624268846924F07305D0
:1038F0000C682C4323F002058B682B430A4DA84229
:103900000BD123F00805CB6822F440722B434D699C
:1039100023F0040315438A692A434260846149689D
:103920004163036230BD0000002C014030B5026AE3
:10393000036A23F010030362436884690D6824F46A
:10394000E64444EA05248D6822F0200242EA05128A
:103950000B4DA8420ED1CD6822F0800242EA05123A
:103960004D6923F4406343EA85038D6922F04002E8
:1039700043EA85034360846149688163026230BD24
:10398000002C014030B5036A026A22F480720262A0
:103990004268C46923F4007324F073050C682C4357
:1039A0008D6843EA05230C4DA8420ED1CD6823F45F
:1039B000006343EA05234D6922F4405242EA0512AE
:1039C0008D6923F4806342EA05124260C46149684C
:1039D000C163036230BD0000002C014030B5046AB1
:1039E000026A22F4805202624268C3690D6823F4BD
:1039F000E64343EA05238D6824F4005444EA053481
:103A0000064DA84204D14D6922F4804242EA851253
:103A10004260C36149680164046230BD002C01400A
:103A200070B5044600680169E26821F44051114311
:103A300001612169A0680843616908432168CA6877
:103A400041F20C639A430243CA6020684169A2694B
:103A500021F44071114341611E492068884202D11E
:103A6000FDF79AFE01E0FDF787FE00EBC00101EBD8
:103A70000012606864218000B2FBF0F3B3FBF1F345
:103A80006FF018067343B2FBF0F5B2FBF0F605EBEE
:103A90008305322303EB0515B5FBF1F5B6FBF1F613
:103AA00005F0F00505EB0615B2FBF0F6B2FBF0F001
:103AB000B0FBF1F06FF01802504306EB800003EB0F
:103AC0000010B0FBF1F0216800F00F00284488607E
:103AD00070BD0000003801402DE9F04198461746BE
:103AE0000E460446069D27E0681C25D02DB1FDF743
:103AF00007FAA0EB0800A8421ED920680C3050E855
:103B0000001F21F4D07140E80012002AF5D120688E
:103B1000143050E8001F21F0010140E80012002A93
:103B2000F5D1202084F8410084F84200002084F878
:103B300040000320BDE8F0812068006836EA0000FC
:103B400004D00020B842CFD00020F3E70120F9E7ED
:103B5000FEE7000030B50C2813D20A4B002200EB20
:103B6000400000BF01FA02F4240201D5372400E02E
:103B7000182402EBC005521CD2B223F81540182AB3
:103B8000F0D330BD320600204FF41373024A0021F7
:103B90000248FEF797BB000032060020A804002070
:103BA0004FF41373024A04210248FEF78BBB000056
:103BB00032060020A8040020C0F1FF00552808D2DA
:103BC000A0EB8001491EC9B200EB400061F31F2049
:103BD0007047AA280AD25538A0EB8001491E00EB95
:103BE0004000C9B2C0B241EA00407047AA38A0EB19
:103BF0008001491E090600EB4000090AC0B241EAF3
:103C0000002070470FB4054B10B503A9044A029871
:103C100000F066F910BC5DF814FB0000F9490008DB
:103C200044010020490050EAC12018BF04204A0D79
:103C300018BF40F0010040F2FF72B2EB515F08BFC5
:103C400040F00200012808BF052070470907090E4F
:103C5000002804DB00F1E02080F80014704700F039
:103C60000F0000F1E02080F8141D70472DE9F041AD
:103C70004F1E00EBC7010446D1E9000115461E4660
:103C800037F006020DD02A463346FCF70AFC7F1EA9
:103C900004EBC703D3E90023FCF75CFB37F0060213
:103CA000F1D1022F25D0042F13D0062F18BFBDE865
:103CB000F0812A463346FCF7F4FBD4E90A23FCF7EB
:103CC00049FB2A463346FCF7ECFBD4E90823FCF712
:103CD00041FB2A463346FCF7E4FBD4E90623FCF714
:103CE00039FB2A463346FCF7DCFBD4E90423FCF716
:103CF00031FB2A463346FCF7D4FBD4E90223FCF718
:103D000029FB2A463346FCF7CCFBD4E90023BDE867
:103D1000F041FCF71FBB0122FCF7A4BCFCF71ABB67
:103D2000024A00201107FCF79DBC000001FDFFFFC7
:103D300002E008C8121F08C1002AFAD17047704774
:103D4000002001E001C1121F002AFBD170470000D2
:103D50000149086070470000480100202DE9FF5F1D
:103D600082B00021DDE90430020DDDF840B00343EC
:103D700018D044F61050A2F2FF32424315141198A5
:103D800001281FD0A5EB0B00401C5FEA000A4FF092
:103D900000064E4FDFF83891B046504615D5CAF1AF
:103DA000000413E0119801244AA3012801D16FEA0D
:103DB0000B010298119AC0E90031C0E9024206B035
:103DC000BDE8F09FCBF10000DFE704460021404A48
:103DD000491842EB0450CDE9001012E0E00707D08B
:103DE00032463B4640464946FCF75BFB80468946E7
:103DF00032463B4610461946FCF753FB06460F4633
:103E00006410002CEAD1DDE90401DDE90023BAF1F8
:103E1000000F06DAFCF745FB42464B46FCF741FB38
:103E200005E0FCF7B0FB42464B46FCF7ACFB044612
:103E30000E460022284BFCF76BFC03D84FF0FF30F6
:103E4000014607E00022254B20463146FCF782FA66
:103E5000FCF7C3FD102409E0002C0ADB0A22002332
:103E6000FCF784FC039B30321A55641E50EA0102B1
:103E7000F2D1641C039AC4F111031444119A012A6B
:103E800003D0012208430DD10AE0084304D00020EA
:103E90004FF0110B119072E7A3EB0B056D1E0DE0B7
:103EA0005B4504DD4FF0000205F1010504E003DA93
:103EB0004FF00002A5F10105002AECD002981199FB
:103EC000C0E90231C0E9004579E700000000144074
:103ED0000000F03F300000000000F0430000E03F31
:103EE0002DE9FF4F95B09A46884606460025EEE13B
:103EF000252877D100242746F94A0121039400E0C0
:103F0000044316F8013F203B01FA03F01042F7D1B9
:103F100030782A2811D06FF02F033078A0F13002CA
:103F2000092A16D8039A44F0020402EB820203EB3A
:103F300042021044761C0390EFE758F8042B0392DA
:103F4000002A03DA504244F40054039044F002047F
:103F5000761C30782E2816D116F8010F44F0040490
:103F60002A280DD06FF02F023078A0F13003092BF2
:103F700009D807EB870302EB4303C718761CF3E766
:103F800058F8047B761C30786C280FD006DC4C285F
:103F900017D068280DD06A2814D104E0742810D0F6
:103FA0007A280FD10DE044F400140AE044F48014A0
:103FB00001E044F440147278824202D104F5801486
:103FC000761C761C307866280BD013DC582877D006
:103FD00009DC002875D04528F6D04628F4D04728BB
:103FE0001AD193E118E0632835D0642879D0652888
:103FF00012D18BE1702873D008DC6728F1D06928D2
:104000006FD06E280DD06F2806D1ACE073282CD06D
:10401000752874D0782853D05246179990476D1C54
:1040200054E1C4F30250022809D003280DD0D8F877
:10403000001004280DD00D6008F1040846E1D8F8FE
:104040000010EA17C1E90052F6E7D8F800100D8019
:10405000F2E70D70F0E718F8041B8DF8001000204F
:104060008DF80100EB46012003E058F804BB4FF047
:10407000FF3061074FF0000102D40DE009F10101AA
:104080008946B9420FDA8145F8DB1BF8091000298F
:10409000F4D108E009F1010189468142FADB1BF8FD
:1040A00009100029F6D103985346A0EB09072146D1
:1040B0003846179A00F080FA284400EB090507E01B
:1040C00044E008E10DE01BF8010B524617999047B8
:1040D000B9F10109F7D2534621463846179AF2E062
:1040E00039E00A21C4F302524FF0000B0091022A7A
:1040F00006D058F8040BC117032A09D00AE023E0C0
:1041000008F1070020F00702F2E80201904605E0FE
:1041100000B2C117042A01D140B2C117002906DA42
:104120000A460021404261EB02012D2202E02205F5
:1041300004D52B228DF80420012203E0E20701D0F0
:104140002022F7E7914657E00A2100E010214FF0C6
:10415000000B00910BE010214FF0000B44F0040421
:104160000827009103E008204FF0000B0090C4F3F3
:104170000252022A05D058F8040B0021032A08D065
:1041800008E008F1070020F00702F2E8020190467B
:1041900003E080B2042A00D1C0B24FF00009220728
:1041A0002AD53278702A07D0DDF800C08CF0100CC8
:1041B0005CEA0B0C05D00EE040228DF804200122B1
:1041C00008E050EA010306D030238DF804308DF862
:1041D000052002229146009B83F0080353EA0B035B
:1041E0000AD150EA010201D1620705D530228DF8CB
:1041F00004204FF001097F1E3278582A04D039A2DA
:104200000C920CAA02920BE03BA2F9E75B46009AE3
:10421000FCF7ACFA0C9B9B5C029A521E0292137044
:1042200050EA0102F2D1029804A9081A00F1200B09
:10423000600702D524F4803400E001275F4502DDE9
:10424000A7EB0B0000E0002000EB0B0100900398AF
:104250004944401A0390E00306D453462146179A76
:10426000039800F0A9F90544002706E001A852468A
:10427000C05D179990476D1C7F1C4F45F6DBE0032E
:104280000CD553462146179A039800F095F905443A
:1042900004E030205246179990476D1C0099481E43
:1042A00000900029F5DC08E0029802995246007857
:1042B000491C0291179990476D1CBBF10001ABF1AD
:1042C000010BF1DC5BE100F065F90544761C307808
:1042D00000287FF40DAE19B02846BDE8F08F00002D
:1042E00009280100303132333435363738396162CC
:1042F0006364656600000000303132333435363790
:10430000383941424344454600000000600700D46C
:10431000062708F1070020F00700F0E80223804696
:1043200003F0004C5FEA0C0001D097A009E02005E3
:1043300001D596A005E0E00701D095A001E0AFF21D
:104340004C001390307823F0004365280CD006DC35
:10435000452809D046281DD047287FD13BE0662854
:1043600018D067287AD136E00021112F01DB112007
:1043700000E0781CCDE9000104A90CA8FFF7EEFCD1
:10438000DDE90D010C9A4FF0000B07F101091092C5
:1043900000914EE04FF000400097CDE9011004A9D4
:1043A0000CA8FFF7DBFCDDE90D020C9B0F994FF029
:1043B000000B91461093009211B9791C00EB010992
:1043C000B7EB090003D4C0F1FF3B07F10109A9EBEA
:1043D0000700019042E0012F00DA01270021112F90
:1043E00001DD112000E03846CDE9000104A90CA848
:1043F000FFF7B4FCDDE90D010C9A00914FF0000BC2
:10440000B946109221070FD4009A4A4503DA914623
:1044100001E0A9F10109B9F1010F05DD109AA9F137
:104420000101515C3029F4D0B84202DA10F1040FD6
:1044300003DA0121CDE9011010E0002803DC8344F8
:10444000A9EB000102E0411C494500DD8946A0EBD3
:104450000B00401C01904FF000400290200705D453
:104460000198484502DB4FF0FF30019000208DF8A5
:104470004B0002980DF14B07B0F1004F25D0022000
:104480000C902B200D90029800280CDA40420290EC
:104490002D200D9007E00A210298FCF751F93031E8
:1044A000029007F8011D0C99481E0C900029F2DCBF
:1044B00002980028EFD1791E0D980870307800F02E
:1044C000200040F0450007F8020D11A8C01BC01DD8
:1044D00002901398007800B1012000EB09010198C7
:1044E00001EBE071029801440398401A401E0390CA
:1044F000E00306D453462146179A039800F05CF86F
:1045000005441398007818B15246179990476D1CCE
:10451000E00323D553462146179A039800F04CF840
:1045200005441BE0BBF1000F07DB0098584504DD94
:104530001098179910F80B0001E017993020524697
:10454000904701980BF1010B401E05F10105019008
:1045500004D12E205246179990476D1CB9F10001E5
:10456000A9F10109DEDC05E017F8010B52461799A5
:1045700090476D1C0299481E02900029F4DC5346B6
:104580002146179A03989EE62D0000002B0000009C
:10459000200000002DE9F041044600251E46174684
:1045A000880404D405E039462020B0476D1C641E01
:1045B000F9D52846BDE8F0812DE9F04104460025F3
:1045C0001E469046C80301D5302700E02027880406
:1045D00004D505E041463846B0476D1C641EF9D548
:1045E0002846BDE8F08100002DE9F84F04460D464D
:1045F00021F0004000917349814211DC72498842E8
:1046000001DC06D12CB120462946BDE8F84FFFF762
:1046100082BB6E48002DCCBF6D496E49BDE8F88F56
:104620006D49814211DD6D498142D8BF4FF0FF369F
:104630006DDD20462946FFF7F5FA042808BFFFF78D
:104640006FFB20462946BDE8F88F6549654F25F088
:104650000045814233DD6449814219DD002632463E
:104660004FF0804320462946FBF774FE80468A4679
:10467000012220462946FBF7F5FF00223B46FBF7C7
:104680000AFF42465346FBF77EFF04460D463EE0D6
:1046900001260022BA463B4620462946FBF75AFE31
:1046A00080460F460022534620462946FBF7F3FE7C
:1046B00042463B46FBF767FF04460D4627E04B4961
:1046C00081421BDDDFF828A1022600225346204646
:1046D0002946FBF7E6FE00223B46FBF73BFE804601
:1046E0000F460022534620462946FBF7D4FE424699
:1046F0003B46FBF748FF04460D4608E003262246EA
:104700002B4600203B49FBF73EFF04460D46224660
:104710002B4610461946FBF7C4FE8B4682460246DE
:104720000B46FBF7BEFE07460246334888460B465B
:1047300006217844FFF79AFA52465B46FBF7B1FE32
:1047400082462E488B463A46434605217844FFF779
:104750008DFA3A464346FBF7A4FE02460B46002E6E
:10476000504659460CDAFBF7F5FD22462B46FBF77F
:1047700098FE01B022462B46BDE8F04FFBF78EBEF7
:10478000FBF7E8FD22462B46FBF78BFE1C4A7A44DA
:1047900002EBC603D3E90023FBF77DFE22462B463E
:1047A000FBF779FE174A7A4402EBC603D3E90023EC
:1047B000FBF774FE009A002AB8BF81F00041BDE803
:1047C000F88F0000000010440000F07F182D4454C2
:1047D000FB21F93FFB21F9BF0000DC3F0000203E38
:1047E0000000F33F0000F03F0000E63F0080034080
:1047F0000000F83F0000F0BF4A110000081100005F
:10480000A61000006E1000002DE9F04D9446CCF18A
:10481000000423F000464CEA0404594F46EAD474DD
:104820009A46884621F00042BC4206D8454240EAFA
:10483000050442EAD474BC4204D9BDE8F04D624696
:10484000FFF76CBAAAF14055A5F17F6555EA0C0453
:104850000BD0022404EAAA744A4DDFF82CE144EAA2
:10486000D87452EA000B04D00CE0BDE8F04DFFF71D
:10487000BBBE002C14BF012CBDE8F08D022C30D043
:10488000032C32D056EA0C0B0AD0BE4220D1BA42D9
:1048900009D126F0804622F080423346114617E0C7
:1048A00000291ADB25E0DFF8E4B0FB44002C04BF4C
:1048B000DBE90001BDE8F08D012C02BFDBE900015E
:1048C00081F00041BDE8F08D022C0AD0032C0CD001
:1048D000BA4212D1B8F1000F0BDA2A482C49BDE8D0
:1048E000F08D28462B49BDE8F08D28467146BDE87D
:1048F000F08D24482849BDE8F08D921B12153C2A02
:10490000C4BF204F244E10DCBAF1000FBEBF12F11D
:104910003C0F00273E4608DB6246FBF734FE21F0E1
:104920000041FFF761FE07460E4694B1012C08BF17
:1049300086F000460DD0194A194B022C38463146F4
:1049400015D0FBF7A8FD2A46BDE8F04D114BFBF74B
:10495000A2BD0022134638463146FBF7C1FE04BF14
:104960000220FFF7F5F938463146BDE8F08DFBF738
:1049700092FD2A46BDE8F04D064BFBF78FBD0000C7
:104980000000F07F182D4454FB2109C002100000E4
:10499000FB21F9BFFB210940FB21F93F075C1433E0
:1049A00026A6A13C1FB50AA410281ECC8DE81E0027
:1049B0000B4A694602D23023137005E001EB101355
:1049C00000F00F001B781370085C50701FBD0000D2
:1049D0003031323334353637383941424344454635
:1049E00018060020002103E000BF00BF00BF491CE3
:1049F0008142F9D37047000013B54FF0FF33012215
:104A000069460248FDF79EFD00981CBD7805002010
:104A1000FCF740FDFEF774FEFEF78EFCFEF738FC57
:104A2000FEF7DAFCFEF7F8FCFEF71AFDFEF756FD7E
:104A30000DA0FFF7E7F86420FCF75AF9FEF75DF9DF
:104A400010A0FFF7DFF86420FCF752F91648FEF7D4
:104A5000B5FA0128FAD015A0FFF7D4F8FEF736FC16
:104A600000F043F8FEE700002D2D2D2D2D2D2D2DCE
:104A70002D7374617274212D2D2D2D2D2D2D2D2D25
:104A80000A0000002D2D2D2D2D2D2D2D2D4D4652A2
:104A9000433532325F496E6974206F6B2D2D2D2D99
:104AA0002D2D2D2D2D0A0000FC0300202D2D2D2D48
:104AB0002D2D2D2D2D4D5055363035305F496E69D9
:104AC00074206F6B2D2D2D2D2D2D2D2D2D0A0000D9
:104AD00001460020842900D0C81C704710B500B9D9
:104AE000012000F047FC002010BD10B500F068FC6C
:104AF000002010BD7FB50D4604464169B0F908009D
:104B000081B1A16971B1FFF7E3FFD4E905128DE826
:104B10000700D4E900102B46226900F03EFD039007
:104B200004B070BDFFF7D4FF03A9CDE90001208ACE
:104B30002B4682B2D4E9001000F002FD012801D01A
:104B40000020EDE70398EBE72DE9F041184C0F4604
:104B5000054666692068001D00F048FB38B92068EA
:104B600090F82C1001208840A1698143A161681C44
:104B700007D137B12168BDE8F0410E48091D00F0AA
:104B800079BB20683544B5424560216805D2A068EC
:104B9000BDE8F041091D00F055BB6068091D00F03B
:104BA00051FB206B854200D22563BDE8F0810000F7
:104BB000E4000020A80B00202DE9F041054600F09C
:104BC00065FB2E4C2069401C206120682C4F10B1E1
:104BD000E06940B32DE025602069012829D1002635
:104BE00006EB860007EB800000F01EFB761C072E0C
:104BF000F6D323488C3000F017FB2148A03000F09A
:104C000013FB1F48B43000F00FFB1D48C83000F004
:104C10000BFB1B48DC3000F007FB19488C30606050
:104C20001430A06005E02068E96AC06A884200D8B4
:104C30002560E06A401CE062E96A0120A2698840C0
:104C40001043A06101EB810007EB8000291D00F0FB
:104C500011FB00F03BFBE06900280CD02068E96AFA
:104C6000C06A884207D207494FF080500860BFF3FE
:104C70004F8FBFF36F8FBDE8F0810000E40000208C
:104C8000CC0A002004ED00E010B5044690F8510075
:104C900058B101280CD002280FD0502080F3118881
:104CA000BFF34F8FBFF36F8FFEE7206B00F022FB47
:104CB0002046BDE8104000F01DBB10BD10484FF469
:104CC0004061420706D0C01D0D4920F00700411A7F
:104CD000C1F540610B4A00230144C2E900030839D1
:104CE000103A21F0070111604B600B600B1AC0E90C
:104CF000001393604FF000405360D0607047000095
:104D0000BC0B002030010020144E154CA6F1C80742
:104D10004FF08058DFF84C9012E000BF00F0B6FA78
:104D2000F068C568281D00F061FA2069401E206106
:104D3000E068401EE06000F0C9FA2846FFF7A4FFD3
:104D4000E0680028EAD138680128F9D9C9F800805C
:104D5000BFF34F8FBFF36F8FF2E70000940B00207B
:104D6000E400002004ED00E02DE9F0479A46DDE97B
:104D7000098481466FF00303206B03EB8202104429
:104D8000089D20F00706700707D0502080F3118897
:104D9000BFF34F8FBFF36F8FFEE723180A5C83F8D2
:104DA00034200A5C12B1401C1028F6D3002784F886
:104DB0004370072D00D30625E562C4E91157201D75
:104DC00000F03DFA04F1180000F039FA2461C5F151
:104DD00007006462A061E76484F850705246494657
:104DE000304600F0BFF82060B8F1000F01D0C8F8DD
:104DF0000040BDE8F087000030B5114900E01146E1
:104E00000A688242FBD34B685C18844203D1406835
:104E100018444860084643681C18944209D1084C5D
:104E2000103C2468A24209D052681A4442600A68C1
:104E300012680260814200D0086030BD0460F9E76A
:104E40003001002006484168096829B14168C968F5
:104E5000C9684968016370474FF0FF31FAE7000005
:104E6000E400002008484068401C4FF0500080F3E8
:104E7000118804D0BFF34F8FBFF36F8FFEE7BFF3EE
:104E80004F8FBFF36F8FFEE7380100202DE9F0410F
:104E90000546002700F0CAFA314E306808B9FFF71E
:104EA0000DFFF06805424BD1C5B3083568070ED039
:104EB00005F00700C0F108000544680707D050203E
:104EC00080F31188BFF34F8FBFF36F8FFEE72DB3D1
:104ED0007068854234D82248103001460C6801E0E1
:104EE00020460C466168A94202D221680029F7D108
:104EF00031688C4224D007682168016060680837F7
:104F0000411B10290FD96019420708D0502080F3A7
:104F10001188BFF34F8FBFF36F8FFEE710E0416042
:104F20006560FFF769FF61687068401A7060B26879
:104F3000904200D2B060F06801430020C4E9000153
:104F400000F0BAFB780707D0502080F31188BFF338
:104F50004F8FBFF36F8FFEE73846BDE8F08100004A
:104F60002001002010B5031F4FF080741C601B1F30
:104F700021F001011960191F024B0B6014394038F0
:104F80000A6010BD654E000870B50446FBF7B8FF17
:104F900012498A7802B9886001228A708A68904230
:104FA00016D94A782044521CD5B24D7000240C26E4
:104FB00088602002B0FBF6F02844C0B2FEF7FCFD8A
:104FC00001462046FEF7C6FD641CA4B20C2CF0D3AB
:104FD000FEF7DAFDBDE87040FEF7E2BDD800002024
:104FE0002DE9F0414F495220FDF7CEFE002877D140
:104FF0004C48FDF7E7FD002872D10A20FBF778FE48
:1050000049A0FEF7FFFD0025484C0123454EA57041
:105010002571E570637165702846A21D6178575C43
:1050200016F801C0674500D00120491CC9B2617063
:105030000429F3D3A07060B35BB32571657165700B
:105040006078315C1154401CC0B260700428F7D302
:10505000344FDFF8D8806570103708F11608607893
:10506000305CFFF79FFCE1783A7808F80120491C92
:10507000C9B27A7808F80120491CE1706078401CB8
:10508000C0B260700428EAD3284929A01631FEF77F
:10509000B9FD2448FDF7CEFE002825D0234A214B38
:1050A0000A320B216020FDF7AEFD68B121A000BFE0
:1050B000FEF7A8FD1D4A1B4B10320B216120FDF7A6
:1050C000A2FD18B120A00DE024A0F1E728A0FEF772
:1050D00099FD144920781A31FDF736FE58B100E0E9
:1050E0001DE028A0FEF78EFDFDF707FEBDE8F041AC
:1050F0000A20FBF7FDBD65700A4D1A356078295C02
:1051000024A0FEF77FFD6078401CC0B260701028BC
:10511000F4D322A0FEF776FDFDF7D9FDE4E7BDE864
:10512000F0810000080600203E3E3E00B80000204E
:1051300025730A0061757468284129206661696CCD
:1051400065640D0A0000000061757468284229201A
:105150006661696C65640D0A000000006175746821
:1051600028412920737563636573730D0A0000007D
:105170006175746828422920737563636573730DC4
:105180000A00000072656164206661696C65640DE7
:105190000A00000025303278000000000D0A0000EF
:1051A0002DE9F04106460F46FBF7C6FB041E0D46EF
:1051B00018BF0120284320F00040C0F17F6000F1BB
:1051C000E040C00F0ED0301C18BF0120384320F043
:1051D0000040C0F17F6000F1E040C00F04BF01203B
:1051E000FEF7B6FD20462946BDE8F081D0E9013240
:1051F00001699A60D0E901235A604A68824201D16C
:1052000082684A60002202610868401E08600868DF
:1052100070470000034B036003F1540008608020D6
:1052200010607047A801002000F108014FF0FF3224
:10523000C0E90112C16001610021016070470021D5
:105240000161704730B50B685A1C02D000F10802AA
:1052500002E0026904E02246546825689D42FAD9BA
:1052600053684B6099608A60516008610168491C0D
:10527000016030BD42684A6093688B6093685960F2
:10528000916008610168491C01607047502080F3FB
:105290001188BFF34F8FBFF36F8F0A494868401CD6
:1052A000486001280CD10848006810F0FF0F07D0B3
:1052B000502080F31188BFF34F8FBFF36F8FFEE74D
:1052C000704700003801002004ED00E008494868FC
:1052D00028B1401E486001D180F3118870475020EA
:1052E00080F31188BFF34F8FBFF36F8FFEE700008D
:1052F0003801002070B5002827D0144DA0F1080413
:105300006168E868014207D1502080F31188BFF33B
:105310004F8FBFF36F8FFEE722683AB1502080F3C2
:105320001188BFF34F8FBFF36F8FFEE7814361603A
:1053300000F07CF860686968084468602046FFF700
:105340005BFDBDE8704000F0B7B970BD20010020E2
:105350004FF0E02000210161816105494FF47A722C
:105360000968B1FBF2F1491E4161072101617047F3
:105370001C00002010B5020014D00F48806B38B11B
:10538000502080F31188BFF34F8FBFF36F8FFEE77C
:1053900000F04CF800211046FFF7D6FB00F08CF926
:1053A000002807D105494FF080500860BFF34F8FA8
:1053B000BFF36F8F10BD0000E400002004ED00E09B
:1053C00010B586B00024039405AA04A903A8049488
:1053D000FFF720FFDDE903010094CDE90110002370
:1053E0000EA11048059A00F0D8F80F49002848632C
:1053F00011D0502080F31188BFF34F8FBFF36F8F10
:105400004FF0FF3008630120C8614C6106B0BDE871
:10541000104000F041B806B010BD000049444C45B2
:1054200000000000094D0008E40000200248816BE4
:10543000491C816370470000E40000201448816B20
:1054400011B1012141627047002141628169B1FAC5
:1054500081F1C1F11F0101EB81020E4951F82230A7
:105460006BB101EB820101F108034A6852684A609E
:105470009A4201D152684A60D16801607047502059
:1054800080F31188BFF34F8FBFF36F8FFEE70000EB
:10549000E4000020CC0A00201CB5264908780190C1
:1054A000FF20087008788DF800009DF800009DF836
:1054B000002000F0F000904207D0502080F31188C7
:1054C000BFF34F8FBFF36F8FFEE79DF800001A4BBD
:1054D00000F0500018700720986005E09DF800204B
:1054E00052008DF80020401E9DF800201206F5D4D1
:1054F0009860032807D0502080F31188BFF34F8FA6
:10550000BFF36F8FFEE74FF440709860019808700A
:105510000A48016841F470010160016841F070417E
:105520000160FFF715FF00205860FAF7FDFD00202D
:105530001CBD000000E400E03801002020ED00E088
:105540002DE9FF5F8346DDE90E87994616468A46B8
:105550009000FFF79BFC05001CD05420FFF796FC41
:10556000040014D00020256384F85100CDE90240E6
:10557000CDE900874B46324651465846FFF7F4FBCB
:105580002046FFF719FB012004B0BDE8F09F284634
:10559000FFF7B0FE4FF0FF30F6E7F0B585B0DDE97C
:1055A0000B640A9DA6B1DCB154270097266302263E
:1055B00084F85160002604AFCDE90246CDE90057DA
:1055C000FFF7D2FB2046FFF7F7FA049805B0F0BDCD
:1055D000502080F31188BFF34F8FBFF36F8FFEE72A
:1055E000502080F31188BFF34F8FBFF36F8FFEE71A
:1055F0002DE9F0412E4C0027A06B40B1206A401CE1
:105600002062606A00B101273846BDE8F081666912
:10561000761C666113D16068006838B1502080F351
:105620001188BFF34F8FBFF36F8FFEE76068A168EB
:105630006160A060A06A401CA062FFF703FC206BC1
:10564000DFF87080864209D36068006880B16068C6
:10565000C068C568686886420DD220632068C06A49
:1056600000EB800158F821000128CAD90127C8E7BA
:105670004FF0FF30F1E7281DFFF7B8FDA86A18B119
:1056800005F11800FFF7B2FDE86A0121A269814027
:105690001143A16100EB800108EB8100291DFFF798
:1056A000E9FDE86A2168C96A8842CDD30127CBE7C2
:1056B000E4000020CC0A00202DE9F0472C4D002406
:1056C0002746A86B38B1FFF7E1FDA86B401EA86321
:1056D000A86B40B146E0502080F31188BFF34F8F94
:1056E000BFF36F8FFEE72969224E0120D1B3A6F1E7
:1056F000B40980463068E8B1F068C46804F1180065
:10570000FFF774FD201DFFF771FDE06AAA6908FA32
:1057100000F11143A96100EB800109EB8100211D1B
:10572000FFF7A8FDE06A2968C96A8842E2D3C5F894
:105730002480DFE70CB1FFF785FB2C6A44B14646B5
:10574000FFF756FF00B16E62641EF9D10020286297
:10575000686A38B10849012738070860BFF34F8FDE
:10576000BFF36F8FFFF7B2FD3846BDE8F08700004A
:10577000E4000020800B002004ED00E0C458000885
:1057800071360008FEFF00000000000080000000ED
:105790000000000000000000D0580008B9360008E2
:1057A0000000000000000000800000000000000079
:1057B00000000000DC5800087936000800000000F6
:1057C0000000000080000000000000000000000059
:1057D000B8580008C73600080000000000000000AC
:1057E0008000000000000000000000000102020331
:1057F0000405060708090A0B0C0D0E0F1010000017
:105800000000000000000102030406070809000070
:1058100000000102030400004FBB610567ACDD3FDF
:10582000182D4454FB21E93F9BF681D20B73EF3FC7
:10583000182D4454FB21F93FE2652F227F2B7A3C3F
:10584000075C143326A6813CBDCBF07A8807703CF8
:10585000075C143326A6913CC4EB98999999C9BF6B
:10586000711623FEC671BCBF6D9A74AFF2B0B3BFA0
:105870009AFDDE522DDEADBF2F6C6A2C44B4A2BF60
:105880000D5555555555D53FFF8300922449C23FCC
:105890006E204CC5CD45B73F513DD0A0660DB13F00
:1058A000EB0D76244B7BA93F11DA22E33AAD903F12
:1058B000000000000000000053776970696E6743C4
:1058C0006172640064656661756C745461736B0029
:1058D000536964654C6967687400000047726176BB
:1058E0006974790004590008000000204C01000090
:1058F000300A0008345900084C010020741A0000D6
:10590000403D0008011032018210C324F436E04DFE
:1059100062503F2DC0749368082DE051B89E080175
:105920003009434892089AFF015A300102650D1A66
:04593000AA01C10007
:04000005080000ED02
:00000001FF
