:020000040800F2
:10000000881500209D0100089F1600085314000861
:100010009D1600082D0200080919000800000000C4
:1000200000000000000000000000000005010008C2
:10003000490200080000000049010008C11600083C
:10004000B7010008B7010008B7010008B7010008B0
:10005000B7010008B7010008B7010008B7010008A0
:10006000B7010008B7010008B70100083102000815
:10007000B7010008B70100083D020008B7010008F9
:10008000B7010008B7010008B7010008B701000870
:10009000B7010008B7010008B7010008B701000860
:1000A000B70100084D170008B7010008B7010008A4
:1000B000B7010008B7010008B7010008B701000840
:1000C000B7010008B7010008B7010008B701000830
:1000D000B7010008B7010008B7010008B701000820
:1000E000B7010008B7010008B7010008DFF810D019
:1000F00000F08AF80048004749190008AFF3008073
:1001000088150020224B19680868B0E8F00F80F3CA
:100110000988BFF36F8F4FF0000080F311884EF015
:100120000D0E70470000000006480068006880F36C
:10013000088862B661B6BFF34F8FBFF36F8F00DFE1
:1001400000BF00BF08ED00E0EFF30980BFF36F8F41
:100150000F4B1A6820E9F00F106008B54FF05000FF
:1001600080F31188BFF34F8FBFF36F8F01F084FFCF
:100170004FF0000080F31188BDE808401968086856
:10018000B0E8F00F80F30988BFF36F8F704700BFAE
:1001900020000020EFF305807047000006488047EC
:1001A00006480047FEE7FEE7FEE7FEE7FEE7FEE75C
:1001B000FEE7FEE7FEE7FEE74B170008ED0000084C
:1001C00040EA01039B0703D009E008C9121F08C0D9
:1001D000042AFAD203E011F8013B00F8013B521E59
:1001E000F9D27047D2B201E000F8012B491EFBD2D0
:1001F00070470022F6E710B513460A460446194632
:10020000FFF7F0FF204610BD064C074D06E0E06802
:1002100040F0010394E8070098471034AC42F6D34D
:10022000FFF768FF80240008A0240008FEE7000014
:10023000014800F00DB80000C8030020014800F09C
:1002400007B800000C040020704772B6FEE70000FB
:100250002DE9F05FC16B0C6801680B68D0F840C0F5
:10026000042202FA0CF2494DDFF824A1494E4A4F0C
:10027000DFF828B1DFF828E122422CD05A072AD52E
:100280000A68920603D40A6822F004020A60016830
:10029000A94201D1042219E0514501D1402215E0C3
:1002A000B14202D14FF4806210E0B94202D14FF462
:1002B00080420BE0594502D14FF4802206E071459F
:1002C00002D14FF4800201E04FF080622F490839DB
:1002D0004A60C16A3BE04FF0020808FA0CF818EADD
:1002E000040F4FF000094FF0010235D05FEA837828
:1002F00032D50B689B0605D40B6823F00A030B600C
:1003000080F821200168A94201D1022219E051455B
:1003100001D1202215E0B14202D14FF4007210E069
:10032000B94202D14FF400520BE0594502D14FF4CB
:10033000003206E0714502D14FF4001201E04FF0A7
:100340000072124908394A6080F82090816A0029B9
:100350001AD0BDE8F05F0847082505FA0CF52542DC
:1003600012D01B0710D50B6823F00E030B6090F81A
:100370004010C36B02FA01F15960826380F82120BA
:1003800080F82090016BE2E7BDE8F09F0800024092
:100390001C0002403000024044000240580002406D
:1003A0006C00024030B528B308C813491422194420
:1003B000B1FBF2F18900C1631049816302214177E9
:1003C0001A6843F6F0718A43D0E900142143D0E95A
:1003D00002452C4321430469214344692143846934
:1003E00021431143196000214163012242770177C3
:1003F000084630BD012030BDF8FFFDBF00000240BF
:100400002DE9F84FDFF8B8910024A9F1040B234639
:100410000F2709F1040AABF1040EC9E00125A5403C
:100420002A40AA427DD1674ED1F804C0ACEB060841
:10043000B44532D014DCBCF1030F3AD009DCBCF176
:10044000000F2AD0BCF1010F1CD0BCF1020F31D13A
:100450001DE0BCF1110F17D0BCF1120F2AD119E029
:10046000B8F5881F19D006DCB8F5803F15D0B8F56F
:10047000801F1FD111E0B8F5001F0ED0B8F5041F82
:1004800018D10AE0CB6815E0CB681B1D12E0CB68E1
:1004900008330FE0CB680C330CE08B682BB1012BD9
:1004A0004FF0080303D0456104E0042302E0056136
:1004B00000E00023FF2A01D8064601E000F104060F
:1004C0004FEA840501D9A5F12005D6F8008007FA86
:1004D00005FC28EA0C0803FA05F548EA0508C6F801
:1004E00000804D68ED0062D5374DAE6946F00106DB
:1004F000AE61AD6924F0030605F001050095334DAA
:1005000006EB050CDCF80850A607360F07FA06F8CC
:1005100025EA0805DFF8B880404503D14FF0000810
:1005200017E044E0DFF8AC80404502D14FF001080D
:100530000FE0DFF8A480404502D14FF0020808E048
:10054000DFF89880404502D14FF0030801E04FF0FA
:10055000040808FA06F848EA0508CCF808804D684F
:10056000D9F80060ED024D4601D5164300E09643F0
:100570002E604D68DAF80060AD02554601D516438D
:1005800000E096432E604D68DBF80060AD035D46E9
:1005900001D5164300E096432E604D68DEF80060FA
:1005A000ED03754601D5164300E096432E60641CAA
:1005B0000D682A46E5407FF431AFBDE8F88F0000B2
:1005C000080401400000111000100240000001402A
:1005D00000080140000C01400010014000140140DF
:1005E0000AB1016170470904FBE700000148806817
:1005F000704700001000002070B5040025D094F86A
:100600003D00002520B984F83C50204600F0B8F8A1
:10061000242084F83D002068016821F00101016078
:100620002068016841F4004101602068016821F4FC
:100630000041016000F056FA4D4A6168914201D8CC
:100640004C4900E04C49884201D2012070BD4B4921
:100650002368B0FBF1F15E6826F03F060E435E6052
:100660006368934206D94FF4967359434FF47A73F3
:10067000B1FBF3F12368491C1E6A26F03F063143A3
:1006800019626168914210D84900401EB0FBF1F236
:10069000521CC2F30B02042A01D2042022E0B0FB58
:1006A000F1F0401CC0F30B001CE0A268F2B301EBB8
:1006B000C10303EB0116431EB3FBF6F35B1C43F4CB
:1006C00080431B0549D092B301EBC10202EB01113B
:1006D000401EB0FBF1F0401CC0F30B0040F4804022
:1006E00040F400402168CA694CF6FF739A431043F6
:1006F000C861D4E9071001432068026822F0C002F3
:1007000011430160D4E9030101432068826848F283
:10071000FF339A4311438160D4E9050108432168FE
:10072000CA6822F0FF021043C86001E00EE016E044
:100730002068016841F0010101602564202084F8EF
:100740003D00256384F83E50002070BD01EB41065A
:10075000431EB3FBF6F35B1CB3E70120C2E701EBDA
:100760004101401EB0FBF1F0401CC0F30B00B7E7A5
:10077000A086010080841E0000093D0040420F0059
:1007800010B586B00021009101910291039100689B
:100790001349884222D1134CA06940F00800A0619F
:1007A000A069694600F0080004904FF44070009082
:1007B00012200190032003900B48FFF721FE0B4805
:1007C000416841F0E06141F002014160E06940F4BC
:1007D0000010E061E06900F40010049006B010BD64
:1007E0000054004000100240000C01400000014095
:1007F000024881680278114481607047100000202F
:10080000074810B5016841F010010160032000F0B5
:10081000A1F80F2000F006F800F04AF8002010BD03
:100820000020024030B505461C4887B0816941F47C
:1008300000618161806906A900F40060009001A850
:1008400000F030F900F05EF91549164AB0FBF1F1FD
:100850001548491E0260416040F2E7320021C0E9BC
:1008600003218160816100F0DBFB040012D10E489E
:1008700000F004FC04000DD1192000F03DF8102D0B
:1008800007D200222946192000F044F807480560E5
:1008900000E0012407B0204630BD000000100240F7
:1008A00040420F00002C01405004002014000020A2
:1008B0000F4808B5816941F001018161816901F04A
:1008C00001010091C16941F08051C161C0690022FC
:1008D00000F0805000900F21901E00F01BF805489A
:1008E000416821F0E06141F00071416008BD000005
:1008F0000010024000000140002809DB00F01F0248
:10090000012191404009800000F1E020C0F8001171
:1009100070470000F0B40E4B1B680C46C3F3022373
:10092000C3F10705042D00D90425191D072901D29B
:10093000002300E0DB1E012606FA05F1491E2140D6
:1009400099409E40761E16403143F0BC00F0DDBF5A
:100950000CED00E0064900F0070208684FF6FF03BF
:10096000184040EA0220034A104308607047000024
:100970000CED00E00000FA052DE9F0470F460500F8
:1009800061D0434E306800F00700B84209D23068A9
:1009900020F0070038433060306800F00700B842AC
:1009A00051D128683B4C810712D5400703D56068B8
:1009B00040F4E06060602878000703D5606840F488
:1009C000605060606068A96820F0F00008436060D3
:1009D0002878C00728D06868012810D0216802282C
:1009E00010D0890700292EDA616821F00301014344
:1009F0006160FFF7FBFD804641F288390DE0216818
:100A00008903EFE78901EDE7FFF7F0FDA0EB0801AF
:100A1000494502D90320BDE8F0876068696800F0A5
:100A20000C00B0EB810FEFD1306800F00700B84246
:100A30000BD9306820F0070038433060306800F090
:100A40000700B84201D00120E5E72878400705D526
:100A50006068E96820F4E060084360602878000777
:100A600006D56068296920F4605040EAC1006060E2
:100A700000F058F86168084AC1F30311515CC8409E
:100A80000649086006480068FFF7CCFE0020C2E770
:100A900000200240001002403A2400081C00002000
:100AA000140000200F2202600C4A536803F0030375
:100AB0004360536803F0F0038360536803F4E0631A
:100AC000C36052684FF4E06303EAD2020261044853
:100AD000006800F007000860704700000010024046
:100AE000002002400448054900684968044AC1F3EF
:100AF0000221515CC84070471C00002000100240D9
:100B00004A2400080448054900684968044AC1F3BA
:100B1000C221515CC84070471C00002000100240F8
:100B20004A2400080E4A51680E4801F00C03042BB9
:100B300011D0082B0FD10C48C1F38343C903C05C0B
:100B40000AD55168084AC1F34041921E515C054ADA
:100B50005043B0FBF1F07047044948437047000030
:100B60000010024000127A002A24000800093D000B
:100B70002DE9F84F040070D02078C04DC00749D04F
:100B80006868C0F38100012807D06868C0F381005D
:100B9000022809D16868C00306D52868800339D5C2
:100BA00060680028E7D035E06068B0F5803F0BD082
:100BB00010B1B0F5A02F11D0286820F48030286043
:100BC000286820F4802002E0286840F48030286003
:100BD000606890B1FFF70AFD06460AE0286840F415
:100BE00080202860F0E700BFFFF700FD801B64282D
:100BF00073D828688003F7D50CE0FFF7F7FC0646AA
:100C000005E000BFFFF7F2FC801B6428F0D82868DD
:100C10008003F7D420789A4E80074FF001094FF0F7
:100C2000000839D5686810F00C0F07D06868C0F369
:100C30008100022809D16868C00306D428688007AB
:100C400014D52069012808D110E02069B0B1C6F898
:100C50000090FFF7CBFC074605E00AE1FFF7C6FC72
:100C6000C01B0228C4D828688007F7D528686169A6
:100C700020F0F80040EAC10028600DE0C6F80080CE
:100C8000FFF7B4FC074604E0FFF7B0FCC01B0228E6
:100C900023D828688007F7D4207800072CD5794816
:100CA000A169D9B1C0F80090FFF7A0FC074604E0A5
:100CB000FFF79CFCC01B02280FD8686A8007F7D595
:100CC00071484FF4FA510068B0FBF1F0009000BF9A
:100CD0000098411E0091FAD20EE080E0C0F800803A
:100CE000FFF784FC074604E0FFF780FCC01B0228E6
:100CF00075D8686A8007F7D42078400760D5E8691E
:100D00000027C00008D4E86940F08050E861E86935
:100D1000012700F0805000905C480168C90513D499
:100D20000168834641F480710160FFF75FFC8246F1
:100D300006E000BFFFF75AFCA0EB0A0064284ED87B
:100D4000DBF80000C005F5D5E06801280AD008B13D
:100D5000052813D0286A20F001002862286A20F0B4
:100D6000040002E0286A40F001002862E06841F2D5
:100D7000883B98B1FFF73AFC82460BE0286A40F0C6
:100D800004002862EEE700BFFFF730FCA0EB0A0189
:100D900059455AD8286A8007F6D50CE0FFF726FC9B
:100DA000824605E0FFF722FCA0EB0A0159454CD82A
:100DB000286A8007F6D41FB1E86920F08050E86106
:100DC000E06988B36968C1F38101022944D002282F
:100DD000C6F8608004D0FFF709FC044638E034E030
:100DE000FFF704FC074604E0FFF700FCC01B0228E5
:100DF0002BD828688001F7D4206AB0F5803F05D150
:100E00006868A16820F4003008436860D4E90801EC
:100E10000843696821F4741108436860C6F860905B
:100E2000FFF7E4FB044606E025E000BFFFF7DEFB2A
:100E3000001B022809D828688001F7D51BE000BFF5
:100E4000FFF7D4FB001B022802D90320BDE8F88F6E
:100E500028688001F4D40EE00128F7D06868226A7F
:100E600000F48031914204D1616A00F4701088422C
:100E700001D00120EAE70020E8E70000001002406E
:100E800000004242800442421C00002000700040EA
:100E900070B5040009D0606A002540B12561656124
:100EA000A56294F8510040B10CE0012070BD60686B
:100EB000B0F5827FF4D0E561F2E784F85050204627
:100EC00000F040F8022084F851002068016821F009
:100ED00040010160A088218900F4827001F404417E
:100EE0000843A18901F400610843217C01F002015B
:100EF0000843217D01F001010843218B01F40071B9
:100F00000843217F01F03801084394F8201001F0D4
:100F100080010843218D01F40051084321680860D5
:100F2000A069042101EA1040216848602068C16975
:100F300021F40061C1616565012084F85100002041
:100F400070BD000030B585B0002400940194029477
:100F5000039400681449884223D11448816941F4FC
:100F600080518161816901F480510491816941F06E
:100F70000401816180690E4D00F004000490A020FE
:100F80000090022001900320039069462846FFF755
:100F900037FA4020CDE90004694628460294FFF75D
:100FA0002FFA05B030BD00000030014000100240B3
:100FB000000801407047704770B590F83C20012A46
:100FC00026D0012480F83C40022280F83D200368AE
:100FD0005A689D6822F070060A6832435A600D4BC9
:100FE00002689A4208D0B2F1804F05D00A4B9A426B
:100FF00002D00A4B9A4204D1496825F08003194374
:10100000916080F83D40002180F83C10084670BD9A
:10101000022070BD002C0140000400400008004088
:1010200010B5040003D094F83D0010B107E0012092
:1010300010BD002084F83C00204600F01EF802207D
:1010400084F83D00211D206800F086FB012084F813
:10105000460084F83E0084F83F0084F8400084F89D
:10106000410084F8420084F8430084F8440084F886
:10107000450084F83D00002010BD704790F83D10F9
:10108000012901D001207047022180F83D1001683C
:10109000CA6842F00102CA6000680B49884208D061
:1010A000B0F1804F05D00949884202D008498842F2
:1010B00004D1816801F00701062903D0016841F0DD
:1010C0000101016000207047002C01400004004035
:1010D00000080040704770B50446006801694FF091
:1010E0000005C943890715D4C168C943890711D4CC
:1010F000E91E016101202077206880698007204671
:1011000002D0FFF7E7FF04E000F0BEF8204600F051
:1011100093F9257720680169C943490717D4C16845
:10112000C943490713D46FF00401016102202077FD
:101130002068806910F4407F204602D0FFF7CAFF84
:1011400004E000F0A1F8204600F076F92577206849
:101150000169C943090716D4C168C943090712D4F4
:101160006FF008010161042020772068C0698007C2
:10117000204602D0FFF7AEFF04E000F085F82046DD
:1011800000F05AF9257720680169C943C90617D4C8
:10119000C168C943C90613D46FF01001016108206A
:1011A00020772068C06910F4407F204602D0FFF706
:1011B00091FF04E000F068F8204600F03DF9257743
:1011C00020680169C943C90708D1C168C943C90773
:1011D00004D1891E0161204600F030F920680169C0
:1011E000C943090609D4C168C943090605D46FF08B
:1011F000800101612046FFF7DDFE20680169C943D7
:10120000490609D4C168C943490605D46FF04001B5
:101210000161204600F01CF920680169C943890674
:101220000BD4C168C943890607D46FF0200101615E
:101230002046BDE87040FFF7BEBE70BD00B585B06A
:101240000021009101910291039100680B498842AD
:1012500011D10B48816941F00801816180696946BB
:1012600000F008000490C02000900220019003903C
:101270000448FFF7C5F805B000BD000000080040B5
:1012800000100240000C0140704770B5044690F811
:101290003C0000260D4601280FD0012084F83C00B8
:1012A0006AB1042A1DD0082A2FD00C2A3FD001266B
:1012B000002084F83C00304670BD022070BD2068DC
:1012C00000F080FA2068816941F00801816120689E
:1012D000816921F004018161206881692A691143D3
:1012E00011E0206800F096FA2068816941F40061FD
:1012F00081612068816921F4806181612068816950
:101300002A6941EA02218161D2E7206800F0AEFA41
:101310002068C16941F00801C1612068C16921F0FC
:101320000401C1612068C1692A69114311E0206884
:1013300000F0C8FA2068C16941F40061C161206809
:10134000C16921F48061C1612068C1692A6941EAEB
:101350000221C161ACE710B5040003D094F83D0050
:1013600010B107E0012010BD002084F83C002046A9
:1013700000F01EF8022084F83D00211D206800F0D6
:10138000EBF9012084F8460084F83E0084F83F0021
:1013900084F8400084F8410084F8420084F8430057
:1013A00084F8440084F8450084F83D00002010BD16
:1013B0002DE9F84F054600681B49884231D11B488A
:1013C000C16941F00401C161C0691A4C00F0040018
:1013D00000901748102600274FF080084FF48079BE
:1013E0004FF4806A4FF0200B84E8C10F7002E06177
:1013F0002046FEF7D7FF08B1FEF727FF6C62656253
:101400000C4C0B4844343C3084E8C10F4FF400507E
:10141000E0612046FEF7C6FF08B1FEF716FFAC629A
:101420006562BDE8F88F000000080040001002402F
:1014300008000240C803002070470000006803490C
:10144000884201D1FFF7D4B970470000002C014059
:101450007047FEE70D4808B5416941F0010141615F
:101460004069002200F00100009005210B20FFF7E9
:1014700051FA0B20FFF740FA002205210E20FFF75A
:1014800049FABDE808400E20FFF736BA00100240C6
:1014900010B59CB01C2216496846FEF791FE00214B
:1014A000684600F076FA134C11491C2220601C316A
:1014B00007A8FEF785FE002107A800F06AFA0C498C
:1014C00060601C2238310EA8FEF77AFE00210EA8BB
:1014D00000F05FFA0649A0601C22543115A8FEF7FF
:1014E0006FFE002115A800F054FAE0601CB010BD9A
:1014F000B823000800000020F0B585B0002000905F
:101500000190029003902148816941F010018161AE
:10151000816901F010010491816941F0200181612C
:10152000816901F020010491816941F00401816128
:10153000816901F004010491816941F00801816130
:101540008069134E00F008000490002210213046FC
:10155000FFF746F80F4F002201213846FFF740F809
:1015600001241020CDE90004032569463046CDE969
:101570000245FEF745FF0094694638460194CDE9DF
:101580000245FEF73DFF05B0F0BD0000001002402F
:1015900000080140000C01400D4810B50B490160E6
:1015A0000C49416000214FF480428160C0E9031280
:1015B00041618161C1610162FFF71EF8002803D01B
:1015C000BDE81040FEF741BE10BD000000540040D1
:1015D000D4020020A0860100104810B50E49016019
:1015E0004FF48271416000218160C1604FF400724C
:1015F0000161C0E905120822C0E907214162816248
:101600000A21C162FFF744FC002803D0BDE8104066
:10161000FEF71BBE10BD0000003001402803002073
:1016200010B58AB0002407941C2168460894FEF780
:10163000E0FD19481749C0E900144F21C0E90241F3
:1016400004618461FFF787FE08B1FEF7FEFD079491
:1016500007A911480894FFF7AFFC08B1FEF7F5FDA4
:101660006020CDE900040294002269460A480494EF
:10167000FFF70BFE08B1FEF7E8FD042269460648B5
:10168000FFF703FE08B1FEF7E0FD0348FFF7D6FDC4
:101690000AB010BD0008004080030020FEE7FEE70E
:1016A000012000F06AF9FBE7012000F066F9FBE792
:1016B000012000F062F9FBE7012000F05EF9FBE792
:1016C00010B5502080F31188BFF34F8FBFF36F8F99
:1016D00000F0ACFD18B104494FF0805008600020C4
:1016E00080F3118810BD000004ED00E030B58FB02C
:1016F00028216846FEF77DFD14210AA8FEF779FD32
:1017000001210804CDE9001000240294022504916F
:10171000CDE907504FF4E01009906846FFF728FA2A
:1017200008B172B6FEE70F20CDE90A054FF48060DC
:10173000CDE90C4002210AA80E94FFF71DF90028FC
:1017400001D072B6FEE70FB030BD70470148FFF719
:10175000C2BC000050040020F0B50268164B174CC4
:10176000174D4FF08047984205D0B84203D0A042B1
:1017700001D0A84203D122F070064A683243984251
:1017800005D0B84203D0A04201D0A84203D122F430
:101790004074CA6822434C6922F0800222430260EE
:1017A0008A68C2620A688262984201D1096901634B
:1017B00001214161F0BD0000002C01400004004007
:1017C0000008004030B5036A026A22F0010202629A
:1017D0004268846924F073050C682C4323F00205E9
:1017E0008B682B430A4DA8420BD123F00805CB6828
:1017F00022F440722B434D6923F0040315438A6998
:101800002A434260846149684163036230BD00003D
:10181000002C014030B5026A036A23F01003036212
:10182000436884690D6824F4E64444EA05248D681D
:1018300022F0200242EA05120B4DA8420ED1CD68DB
:1018400022F0800242EA05124D6923F4406343EA24
:1018500085038D6922F0400243EA85034360846179
:1018600049688163026230BD002C014030B5036AD3
:10187000026A22F4807202624268C46923F400732F
:1018800024F073050C682C438D6843EA05230C4D46
:10189000A8420ED1CD6823F4006343EA05234D69C5
:1018A00022F4405242EA05128D6923F4806342EA31
:1018B00005124260C4614968C163036230BD000023
:1018C000002C014030B5046A026A22F480520262A0
:1018D0004268C3690D6823F4E64343EA05238D6833
:1018E00024F4005444EA0534064DA84204D14D695D
:1018F00022F4804242EA85124260C3614968016471
:10190000046230BD002C0140FEE70907090E0028E3
:1019100004DB00F1E02080F80014704700F00F00B5
:1019200000F1E02080F8141D704702E008C8121F83
:1019300008C1002AFAD170477047002001E001C1B8
:10194000121F002AFBD17047FEF75AFFFFF7CEFEA9
:10195000FFF7D2FDFFF77EFDFFF71EFEFFF73CFE0F
:10196000FFF75EFEFFF794FD00F00EF8FEE701467C
:101970000020842900D0C81C704710B500B9012090
:1019800000F016FB002010BD10B500F037FB002062
:1019900010BD7FB50D4604464169B0F9080081B11C
:1019A000A16971B1FFF7E3FFD4E905128DE80700E3
:1019B000D4E900102B46226900F00DFC039004B01E
:1019C00070BDFFF7D4FF03A9CDE90001208A2B46A3
:1019D00082B2D4E9001000F0D1FB012801D0002030
:1019E000EDE70398EBE700002DE9F041184C0F46B6
:1019F000054666692068001D00F016FA38B92068AF
:101A000090F82C1001208840A1698143A161681CD5
:101A100007D137B12168BDE8F0410E48091D00F03B
:101A200047BA20683544B5424560216805D2A068B0
:101A3000BDE8F041091D00F023BA6068091D00F0FF
:101A40001FFA206B854200D22563BDE8F0810000BB
:101A500020000020740500202DE9F041054600F02B
:101A600033FA2E4C2069401C206120682C4F10B1A5
:101A7000E06940B32DE025602069012829D10026C6
:101A800006EB860007EB800000F0ECF9761C072ED1
:101A9000F6D323488C3000F0E5F92148A03000F05F
:101AA000E1F91F48B43000F0DDF91D48C83000F0FE
:101AB000D9F91B48DC3000F0D5F919488C3060604A
:101AC0001430A06005E02068E96AC06A884200D846
:101AD0002560E06A401CE062E96A0120A269884052
:101AE0001043A06101EB810007EB8000291D00F08D
:101AF000DFF900F009FAE06900280CD02068E96AF3
:101B0000C06A884207D207494FF080500860BFF38F
:101B10004F8FBFF36F8FBDE8F081000020000020E1
:101B20009804002004ED00E010B5044690F8510040
:101B300058B101280CD002280FD0502080F3118812
:101B4000BFF34F8FBFF36F8FFEE7206B00F0F0F90C
:101B50002046BDE8104000F0EBB910BD10484FF42E
:101B60004061420706D0C01D0D4920F00700411A10
:101B7000C1F540610B4A00230144C2E90003083962
:101B8000103A21F0070111604B600B600B1AC0E99D
:101B9000001393604FF000405360D0607047000026
:101BA000880500206C000020144E154CA6F1C807D3
:101BB0004FF08058DFF84C9012E000BF00F084F93D
:101BC000F068C568281D00F02FF92069401E2061CB
:101BD000E068401EE06000F097F92846FFF7A4FF98
:101BE000E0680028EAD138680128F9D9C9F80080EE
:101BF000BFF34F8FBFF36F8FF2E700006005002047
:101C00002000002004ED00E02DE9F0479A46DDE9D0
:101C1000098481466FF00303206B03EB82021044BA
:101C2000089D20F00706700707D0502080F3118828
:101C3000BFF34F8FBFF36F8FFEE723180A5C83F863
:101C400034200A5C12B1401C1028F6D3002784F817
:101C50004370072D00D30625E562C4E91157201D06
:101C600000F00BF904F1180000F007F92461C5F148
:101C700007006462A061E76484F8507052464946E8
:101C8000304600F0BFF82060B8F1000F01D0C8F86E
:101C90000040BDE8F087000030B5114900E0114672
:101CA0000A688242FBD34B685C18844203D14068C7
:101CB00018444860084643681C18944209D1084CEF
:101CC000103C2468A24209D052681A4442600A6853
:101CD00012680260814200D0086030BD0460F9E7FC
:101CE0006C00002006484168096829B14168C9684C
:101CF000C9684968016370474FF0FF31FAE7000097
:101D00002000002008484068401C4FF0500080F33D
:101D1000118804D0BFF34F8FBFF36F8FFEE7BFF37F
:101D20004F8FBFF36F8FFEE7740000202DE9F04165
:101D30000546002700F098F9314E306808B9FFF7E2
:101D40000DFFF06805424BD1C5B3083568070ED0CA
:101D500005F00700C0F108000544680707D05020CF
:101D600080F31188BFF34F8FBFF36F8FFEE72DB362
:101D70007068854234D82248103001460C6801E072
:101D800020460C466168A94202D221680029F7D199
:101D900031688C4224D00768216801606068083788
:101DA000411B10290FD96019420708D0502080F339
:101DB0001188BFF34F8FBFF36F8FFEE710E04160D4
:101DC0006560FFF769FF61687068401A7060B2680B
:101DD000904200D2B060F06801430020C4E90001E5
:101DE00000F088FA780707D0502080F31188BFF3FD
:101DF0004F8FBFF36F8FFEE73846BDE8F0810000DC
:101E00005C00002010B5031F4FF080741C601B1F86
:101E100021F001011960191F024B0B601439403881
:101E20000A6010BD051D0008D0E9013201699A6001
:101E3000D0E901235A604A68824201D182684A602F
:101E4000002202610868401E0860086870470000B0
:101E5000034B036003F1540008608020106070475A
:101E60008000002000F108014FF0FF32C0E90112AC
:101E7000C16001610021016070470021016170476C
:101E800030B50B685A1C02D000F1080202E002696A
:101E900004E02246546825689D42FAD953684B6095
:101EA00099608A60516008610168491C016030BD19
:101EB00042684A6093688B609368596091600861DA
:101EC0000168491C01607047502080F31188BFF3FE
:101ED0004F8FBFF36F8F0A494868401C4860012844
:101EE0000CD10848006810F0FF0F07D0502080F395
:101EF0001188BFF34F8FBFF36F8FFEE7704700006D
:101F00007400002004ED00E00849486828B1401E34
:101F1000486001D180F311887047502080F3118808
:101F2000BFF34F8FBFF36F8FFEE7000074000020F8
:101F300070B5002827D0144DA0F108046168E86846
:101F4000014207D1502080F31188BFF34F8FBFF3B8
:101F50006F8FFEE722683AB1502080F31188BFF3FB
:101F60004F8FBFF36F8FFEE78143616000F07CF815
:101F700060686968084468602046FFF78DFEBDE828
:101F8000704000F0B7B970BD5C0000204FF0E02059
:101F900000210161816105494FF47A720968B1FB42
:101FA000F2F1491E41610721016170471C000020C8
:101FB00010B5020014D00F48806B38B1502080F368
:101FC0001188BFF34F8FBFF36F8FFEE700F04CF81F
:101FD00000211046FFF708FD00F08CF9002807D11A
:101FE00005494FF080500860BFF34F8FBFF36F8FEC
:101FF00010BD00002000002004ED00E010B586B008
:102000000024039405AA04A903A80494FFF720FF61
:10201000DDE903010094CDE9011000230EA1104871
:10202000059A00F0D8F80F490028486311D05020D5
:1020300080F31188BFF34F8FBFF36F8F4FF0FF30E6
:1020400008630120C8614C6106B0BDE8104000F093
:1020500041B806B010BD000049444C4500000000E6
:10206000A91B0008200000200248816B491C8163E5
:1020700070470000200000201448816B11B101213D
:1020800041627047002141628169B1FA81F1C1F179
:102090001F0101EB81020E4951F822306BB101EBB7
:1020A000820101F108034A6852684A609A4201D1EC
:1020B00052684A60D16801607047502080F31188EF
:1020C000BFF34F8FBFF36F8FFEE7000020000020AB
:1020D000980400201CB5264908780190FF2008705C
:1020E00008788DF800009DF800009DF8002000F0B1
:1020F000F000904207D0502080F31188BFF34F8F3B
:10210000BFF36F8FFEE79DF800001A4B00F0500000
:1021100018700720986005E09DF8002052008DF8A7
:102120000020401E9DF800201206F5D49860032878
:1021300007D0502080F31188BFF34F8FBFF36F8F0C
:10214000FEE74FF440709860019808700A480168F3
:1021500041F470010160016841F070410160FFF7D6
:1021600015FF00205860FDF7DFFF00201CBD0000B8
:1021700000E400E07400002020ED00E02DE9FF5FA6
:102180008346DDE90E87994616468A469000FFF79A
:10219000CDFD05001CD05420FFF7C8FD040014D06D
:1021A0000020256384F85100CDE90240CDE9008785
:1021B0004B46324651465846FFF726FD2046FFF76C
:1021C0004BFC012004B0BDE8F09F2846FFF7B0FEAD
:1021D0004FF0FF30F6E7F0B585B0DDE90B640A9DFE
:1021E000A6B1DCB1542700972663022684F851601B
:1021F000002604AFCDE90246CDE90057FFF704FD04
:102200002046FFF729FC049805B0F0BD502080F36C
:102210001188BFF34F8FBFF36F8FFEE7502080F31D
:102220001188BFF34F8FBFF36F8FFEE72DE9F041A9
:102230002E4C0027A06B40B1206A401C2062606ACF
:1022400000B101273846BDE8F0816669761C6661F9
:1022500013D16068006838B1502080F31188BFF353
:102260004F8FBFF36F8FFEE76068A1686160A06069
:10227000A06A401CA062FFF735FD206BDFF870807C
:10228000864209D36068006880B16068C068C5682C
:10229000686886420DD220632068C06A00EB800126
:1022A00058F821000128CAD90127C8E74FF0FF30AC
:1022B000F1E7281DFFF7B8FDA86A18B105F118006D
:1022C000FFF7B2FDE86A0121A26981401143A161D3
:1022D00000EB800108EB8100291DFFF7E9FDE86AAA
:1022E0002168C96A8842CDD30127CBE720000020AE
:1022F000980400202DE9F0472C4D00242746A86BB8
:1023000038B1FFF7E1FDA86B401EA863A86B40B190
:1023100046E0502080F31188BFF34F8FBFF36F8FDB
:10232000FEE72969224E0120D1B3A6F1B409804607
:102330003068E8B1F068C46804F11800FFF774FD74
:10234000201DFFF771FDE06AAA6908FA00F1114348
:10235000A96100EB800109EB8100211DFFF7A8FDB9
:10236000E06A2968C96A8842E2D3C5F82480DFE7B9
:102370000CB1FFF7B7FC2C6A44B14646FFF756FF95
:1023800000B16E62641EF9D100202862686A38B11B
:102390000849012738070860BFF34F8FBFF36F8FDD
:1023A000FFF7B2FD3846BDE8F087000020000020AE
:1023B0004C05002004ED00E060240008A116000890
:1023C000000000000000000080000000000000008D
:1023D000000000006C240008B11600080000000096
:1023E000000000008000000000000000000000006D
:1023F00078240008A9160008000000000000000072
:1024000080000000000000000000000054240008CC
:10241000B916000800000000000000008000000065
:10242000000000000000000001020203040506078E
:1024300008090A0B0C0D0E0F101000000000000020
:102440000000010203040607080900000000010261
:102450000304000053776970696E6743617264001A
:1024600064656661756C745461736B00536964656F
:102470004C6967687400000047726176697479007E
:10248000A024000800000020800000002A19000895
:102490002025000880000020081500003A190008D7
:1024A000000000000000000000000000000000002C
:1024B0000100000010000000000000000024F400F3
:1024C000000000000000000000000000000000000C
:1024D00000000000000000000000000000000000FC
:1024E00000000000000000000000000000000000EC
:1024F00000000000000000000000000000000000DC
:1025000000000000000000000000000000000000CB
:102510000000000000000000AAAAAAAA0000000013
:04000005080000ED02
:00000001FF
